{
  "contractName": "PrizeRaffle",
  "abi": [
    {
      "inputs": [
        {
          "internalType": "string",
          "name": "name",
          "type": "string"
        },
        {
          "internalType": "string",
          "name": "symbol",
          "type": "string"
        },
        {
          "internalType": "uint256",
          "name": "_endTime",
          "type": "uint256"
        },
        {
          "internalType": "uint256",
          "name": "_emptyPoolSize",
          "type": "uint256"
        }
      ],
      "stateMutability": "nonpayable",
      "type": "constructor"
    },
    {
      "anonymous": false,
      "inputs": [
        {
          "indexed": true,
          "internalType": "address",
          "name": "owner",
          "type": "address"
        },
        {
          "indexed": true,
          "internalType": "address",
          "name": "approved",
          "type": "address"
        },
        {
          "indexed": true,
          "internalType": "uint256",
          "name": "tokenId",
          "type": "uint256"
        }
      ],
      "name": "Approval",
      "type": "event"
    },
    {
      "anonymous": false,
      "inputs": [
        {
          "indexed": true,
          "internalType": "address",
          "name": "owner",
          "type": "address"
        },
        {
          "indexed": true,
          "internalType": "address",
          "name": "operator",
          "type": "address"
        },
        {
          "indexed": false,
          "internalType": "bool",
          "name": "approved",
          "type": "bool"
        }
      ],
      "name": "ApprovalForAll",
      "type": "event"
    },
    {
      "anonymous": false,
      "inputs": [
        {
          "indexed": false,
          "internalType": "address",
          "name": "winner",
          "type": "address"
        },
        {
          "indexed": false,
          "internalType": "uint256",
          "name": "prizeId",
          "type": "uint256"
        }
      ],
      "name": "PrizeWonTranfer",
      "type": "event"
    },
    {
      "anonymous": false,
      "inputs": [
        {
          "indexed": true,
          "internalType": "address",
          "name": "from",
          "type": "address"
        },
        {
          "indexed": true,
          "internalType": "address",
          "name": "to",
          "type": "address"
        },
        {
          "indexed": true,
          "internalType": "uint256",
          "name": "tokenId",
          "type": "uint256"
        }
      ],
      "name": "Transfer",
      "type": "event"
    },
    {
      "inputs": [
        {
          "internalType": "address",
          "name": "to",
          "type": "address"
        },
        {
          "internalType": "uint256",
          "name": "tokenId",
          "type": "uint256"
        }
      ],
      "name": "approve",
      "outputs": [],
      "stateMutability": "nonpayable",
      "type": "function"
    },
    {
      "inputs": [
        {
          "internalType": "uint256",
          "name": "",
          "type": "uint256"
        }
      ],
      "name": "availablePrizes",
      "outputs": [
        {
          "internalType": "uint256",
          "name": "id",
          "type": "uint256"
        },
        {
          "internalType": "string",
          "name": "image",
          "type": "string"
        },
        {
          "internalType": "string",
          "name": "description",
          "type": "string"
        }
      ],
      "stateMutability": "view",
      "type": "function",
      "constant": true
    },
    {
      "inputs": [
        {
          "internalType": "address",
          "name": "owner",
          "type": "address"
        }
      ],
      "name": "balanceOf",
      "outputs": [
        {
          "internalType": "uint256",
          "name": "",
          "type": "uint256"
        }
      ],
      "stateMutability": "view",
      "type": "function",
      "constant": true
    },
    {
      "inputs": [
        {
          "internalType": "uint256",
          "name": "",
          "type": "uint256"
        }
      ],
      "name": "drawDetail",
      "outputs": [
        {
          "internalType": "uint256",
          "name": "id",
          "type": "uint256"
        },
        {
          "internalType": "address",
          "name": "drawer",
          "type": "address"
        },
        {
          "internalType": "uint256",
          "name": "drawIndex",
          "type": "uint256"
        },
        {
          "internalType": "bool",
          "name": "isWon",
          "type": "bool"
        },
        {
          "internalType": "uint256",
          "name": "prizeWon",
          "type": "uint256"
        }
      ],
      "stateMutability": "view",
      "type": "function",
      "constant": true
    },
    {
      "inputs": [],
      "name": "emptyPoolSize",
      "outputs": [
        {
          "internalType": "uint256",
          "name": "",
          "type": "uint256"
        }
      ],
      "stateMutability": "view",
      "type": "function",
      "constant": true
    },
    {
      "inputs": [],
      "name": "endTime",
      "outputs": [
        {
          "internalType": "uint256",
          "name": "",
          "type": "uint256"
        }
      ],
      "stateMutability": "view",
      "type": "function",
      "constant": true
    },
    {
      "inputs": [
        {
          "internalType": "uint256",
          "name": "tokenId",
          "type": "uint256"
        }
      ],
      "name": "getApproved",
      "outputs": [
        {
          "internalType": "address",
          "name": "",
          "type": "address"
        }
      ],
      "stateMutability": "view",
      "type": "function",
      "constant": true
    },
    {
      "inputs": [
        {
          "internalType": "address",
          "name": "owner",
          "type": "address"
        },
        {
          "internalType": "address",
          "name": "operator",
          "type": "address"
        }
      ],
      "name": "isApprovedForAll",
      "outputs": [
        {
          "internalType": "bool",
          "name": "",
          "type": "bool"
        }
      ],
      "stateMutability": "view",
      "type": "function",
      "constant": true
    },
    {
      "inputs": [],
      "name": "name",
      "outputs": [
        {
          "internalType": "string",
          "name": "",
          "type": "string"
        }
      ],
      "stateMutability": "view",
      "type": "function",
      "constant": true
    },
    {
      "inputs": [],
      "name": "owner",
      "outputs": [
        {
          "internalType": "address",
          "name": "",
          "type": "address"
        }
      ],
      "stateMutability": "view",
      "type": "function",
      "constant": true
    },
    {
      "inputs": [
        {
          "internalType": "uint256",
          "name": "tokenId",
          "type": "uint256"
        }
      ],
      "name": "ownerOf",
      "outputs": [
        {
          "internalType": "address",
          "name": "",
          "type": "address"
        }
      ],
      "stateMutability": "view",
      "type": "function",
      "constant": true
    },
    {
      "inputs": [
        {
          "internalType": "uint256",
          "name": "",
          "type": "uint256"
        }
      ],
      "name": "prizeDetails",
      "outputs": [
        {
          "internalType": "uint256",
          "name": "id",
          "type": "uint256"
        },
        {
          "internalType": "string",
          "name": "image",
          "type": "string"
        },
        {
          "internalType": "string",
          "name": "description",
          "type": "string"
        }
      ],
      "stateMutability": "view",
      "type": "function",
      "constant": true
    },
    {
      "inputs": [
        {
          "internalType": "uint256",
          "name": "",
          "type": "uint256"
        }
      ],
      "name": "prizes",
      "outputs": [
        {
          "internalType": "uint256",
          "name": "id",
          "type": "uint256"
        },
        {
          "internalType": "string",
          "name": "image",
          "type": "string"
        },
        {
          "internalType": "string",
          "name": "description",
          "type": "string"
        }
      ],
      "stateMutability": "view",
      "type": "function",
      "constant": true
    },
    {
      "inputs": [
        {
          "internalType": "address",
          "name": "from",
          "type": "address"
        },
        {
          "internalType": "address",
          "name": "to",
          "type": "address"
        },
        {
          "internalType": "uint256",
          "name": "tokenId",
          "type": "uint256"
        }
      ],
      "name": "safeTransferFrom",
      "outputs": [],
      "stateMutability": "nonpayable",
      "type": "function"
    },
    {
      "inputs": [
        {
          "internalType": "address",
          "name": "from",
          "type": "address"
        },
        {
          "internalType": "address",
          "name": "to",
          "type": "address"
        },
        {
          "internalType": "uint256",
          "name": "tokenId",
          "type": "uint256"
        },
        {
          "internalType": "bytes",
          "name": "_data",
          "type": "bytes"
        }
      ],
      "name": "safeTransferFrom",
      "outputs": [],
      "stateMutability": "nonpayable",
      "type": "function"
    },
    {
      "inputs": [
        {
          "internalType": "address",
          "name": "operator",
          "type": "address"
        },
        {
          "internalType": "bool",
          "name": "approved",
          "type": "bool"
        }
      ],
      "name": "setApprovalForAll",
      "outputs": [],
      "stateMutability": "nonpayable",
      "type": "function"
    },
    {
      "inputs": [
        {
          "internalType": "bytes4",
          "name": "interfaceId",
          "type": "bytes4"
        }
      ],
      "name": "supportsInterface",
      "outputs": [
        {
          "internalType": "bool",
          "name": "",
          "type": "bool"
        }
      ],
      "stateMutability": "view",
      "type": "function",
      "constant": true
    },
    {
      "inputs": [],
      "name": "symbol",
      "outputs": [
        {
          "internalType": "string",
          "name": "",
          "type": "string"
        }
      ],
      "stateMutability": "view",
      "type": "function",
      "constant": true
    },
    {
      "inputs": [
        {
          "internalType": "uint256",
          "name": "tokenId",
          "type": "uint256"
        }
      ],
      "name": "tokenURI",
      "outputs": [
        {
          "internalType": "string",
          "name": "",
          "type": "string"
        }
      ],
      "stateMutability": "view",
      "type": "function",
      "constant": true
    },
    {
      "inputs": [
        {
          "internalType": "address",
          "name": "from",
          "type": "address"
        },
        {
          "internalType": "address",
          "name": "to",
          "type": "address"
        },
        {
          "internalType": "uint256",
          "name": "tokenId",
          "type": "uint256"
        }
      ],
      "name": "transferFrom",
      "outputs": [],
      "stateMutability": "nonpayable",
      "type": "function"
    },
    {
      "inputs": [
        {
          "internalType": "uint256",
          "name": "_newEmptyPoolSize",
          "type": "uint256"
        }
      ],
      "name": "updateEmptyPool",
      "outputs": [],
      "stateMutability": "nonpayable",
      "type": "function"
    },
    {
      "inputs": [
        {
          "internalType": "string",
          "name": "_image",
          "type": "string"
        },
        {
          "internalType": "string",
          "name": "_description",
          "type": "string"
        }
      ],
      "name": "addPrize",
      "outputs": [],
      "stateMutability": "nonpayable",
      "type": "function"
    },
    {
      "inputs": [],
      "name": "draw",
      "outputs": [
        {
          "internalType": "uint256",
          "name": "",
          "type": "uint256"
        },
        {
          "internalType": "uint256",
          "name": "",
          "type": "uint256"
        },
        {
          "internalType": "bool",
          "name": "",
          "type": "bool"
        }
      ],
      "stateMutability": "nonpayable",
      "type": "function"
    },
    {
      "inputs": [],
      "name": "withdrawPrize",
      "outputs": [],
      "stateMutability": "nonpayable",
      "type": "function"
    },
    {
      "inputs": [],
      "name": "getPrizesLength",
      "outputs": [
        {
          "internalType": "uint256",
          "name": "",
          "type": "uint256"
        }
      ],
      "stateMutability": "view",
      "type": "function",
      "constant": true
    },
    {
      "inputs": [
        {
          "internalType": "uint256",
          "name": "index",
          "type": "uint256"
        }
      ],
      "name": "getPrize",
      "outputs": [
        {
          "internalType": "uint256",
          "name": "",
          "type": "uint256"
        },
        {
          "internalType": "string",
          "name": "",
          "type": "string"
        },
        {
          "internalType": "string",
          "name": "",
          "type": "string"
        }
      ],
      "stateMutability": "view",
      "type": "function",
      "constant": true
    },
    {
      "inputs": [],
      "name": "getAvailablePrizesLength",
      "outputs": [
        {
          "internalType": "uint256",
          "name": "",
          "type": "uint256"
        }
      ],
      "stateMutability": "view",
      "type": "function",
      "constant": true
    },
    {
      "inputs": [
        {
          "internalType": "uint256",
          "name": "index",
          "type": "uint256"
        }
      ],
      "name": "getAvailablePrize",
      "outputs": [
        {
          "internalType": "uint256",
          "name": "",
          "type": "uint256"
        },
        {
          "internalType": "string",
          "name": "",
          "type": "string"
        },
        {
          "internalType": "string",
          "name": "",
          "type": "string"
        }
      ],
      "stateMutability": "view",
      "type": "function",
      "constant": true
    },
    {
      "inputs": [],
      "name": "getDrawLength",
      "outputs": [
        {
          "internalType": "uint256",
          "name": "",
          "type": "uint256"
        }
      ],
      "stateMutability": "view",
      "type": "function",
      "constant": true
    },
    {
      "inputs": [
        {
          "internalType": "uint256",
          "name": "index",
          "type": "uint256"
        }
      ],
      "name": "getDraw",
      "outputs": [
        {
          "internalType": "uint256",
          "name": "",
          "type": "uint256"
        },
        {
          "internalType": "address",
          "name": "",
          "type": "address"
        },
        {
          "internalType": "uint256",
          "name": "",
          "type": "uint256"
        },
        {
          "internalType": "bool",
          "name": "",
          "type": "bool"
        },
        {
          "internalType": "uint256",
          "name": "",
          "type": "uint256"
        }
      ],
      "stateMutability": "view",
      "type": "function",
      "constant": true
    },
    {
      "inputs": [
        {
          "internalType": "uint256",
          "name": "id",
          "type": "uint256"
        }
      ],
      "name": "getPrizeOwner",
      "outputs": [
        {
          "internalType": "address",
          "name": "",
          "type": "address"
        }
      ],
      "stateMutability": "view",
      "type": "function",
      "constant": true
    }
  ],
  "bytecode": "0x608060405260006007556000600a5560006010553480156200002057600080fd5b5060405162004cc438038062004cc483398181016040528101906200004691906200021a565b8383816000908051906020019062000060929190620000d5565b50806001908051906020019062000079929190620000d5565b50505033600660006101000a81548173ffffffffffffffffffffffffffffffffffffffff021916908373ffffffffffffffffffffffffffffffffffffffff16021790555081600881905550806009819055505050505062000472565b828054620000e39062000369565b90600052602060002090601f01602090048101928262000107576000855562000153565b82601f106200012257805160ff191683800117855562000153565b8280016001018555821562000153579182015b828111156200015257825182559160200191906001019062000135565b5b50905062000162919062000166565b5090565b5b808211156200018157600081600090555060010162000167565b5090565b60006200019c6200019684620002f3565b620002ca565b905082815260208101848484011115620001bb57620001ba62000438565b5b620001c884828562000333565b509392505050565b600082601f830112620001e857620001e762000433565b5b8151620001fa84826020860162000185565b91505092915050565b600081519050620002148162000458565b92915050565b6000806000806080858703121562000237576200023662000442565b5b600085015167ffffffffffffffff8111156200025857620002576200043d565b5b6200026687828801620001d0565b945050602085015167ffffffffffffffff8111156200028a57620002896200043d565b5b6200029887828801620001d0565b9350506040620002ab8782880162000203565b9250506060620002be8782880162000203565b91505092959194509250565b6000620002d6620002e9565b9050620002e482826200039f565b919050565b6000604051905090565b600067ffffffffffffffff82111562000311576200031062000404565b5b6200031c8262000447565b9050602081019050919050565b6000819050919050565b60005b838110156200035357808201518184015260208101905062000336565b8381111562000363576000848401525b50505050565b600060028204905060018216806200038257607f821691505b60208210811415620003995762000398620003d5565b5b50919050565b620003aa8262000447565b810181811067ffffffffffffffff82111715620003cc57620003cb62000404565b5b80604052505050565b7f4e487b7100000000000000000000000000000000000000000000000000000000600052602260045260246000fd5b7f4e487b7100000000000000000000000000000000000000000000000000000000600052604160045260246000fd5b600080fd5b600080fd5b600080fd5b600080fd5b6000601f19601f8301169050919050565b620004638162000329565b81146200046f57600080fd5b50565b61484280620004826000396000f3fe608060405234801561001057600080fd5b50600436106101e55760003560e01c80638da5cb5b1161010f578063be6307c8116100a2578063e985e9c511610071578063e985e9c5146105b6578063eaebd0f5146105e6578063eccb3a4f14610618578063f0eab1481461064a576101e5565b8063be6307c814610504578063c87b56dd14610538578063d70e63cf14610568578063d7eab2dc1461059a576101e5565b8063a1099bf2116100de578063a1099bf214610468578063a22cb4651461049a578063b88d4fde146104b6578063bde10668146104d2576101e5565b80638da5cb5b146103da57806395d89b41146103f857806395e169fc14610416578063986ae3011461044a576101e5565b806323b872dd1161018757806348d37a581161015657806348d37a5814610352578063575fa9841461035c5780636352211e1461037a57806370a08231146103aa576101e5565b806323b872dd146102de5780632d31f055146102fa5780633197cbb61461031857806342842e0e14610336576101e5565b8063095ea7b3116101c3578063095ea7b3146102685780630ce4e548146102845780630eecae21146102a057806321f7b796146102c0576101e5565b806301ffc9a7146101ea57806306fdde031461021a578063081812fc14610238575b600080fd5b61020460048036038101906101ff9190613456565b61067a565b60405161021191906139dd565b60405180910390f35b61022261075c565b60405161022f91906139f8565b60405180910390f35b610252600480360381019061024d9190613528565b6107ee565b60405161025f919061394d565b60405180910390f35b610282600480360381019061027d9190613416565b610873565b005b61029e60048036038101906102999190613528565b61098b565b005b6102a8610a25565b6040516102b793929190613d2d565b60405180910390f35b6102c8610e63565b6040516102d59190613c7a565b60405180910390f35b6102f860048036038101906102f39190613300565b610e70565b005b610302610ed0565b60405161030f9190613c7a565b60405180910390f35b610320610edd565b60405161032d9190613c7a565b60405180910390f35b610350600480360381019061034b9190613300565b610ee3565b005b61035a610f03565b005b610364611038565b6040516103719190613c7a565b60405180910390f35b610394600480360381019061038f9190613528565b61103e565b6040516103a1919061394d565b60405180910390f35b6103c460048036038101906103bf9190613293565b6110f0565b6040516103d19190613c7a565b60405180910390f35b6103e26111a8565b6040516103ef919061394d565b60405180910390f35b6104006111ce565b60405161040d91906139f8565b60405180910390f35b610430600480360381019061042b9190613528565b611260565b604051610441959493929190613c95565b60405180910390f35b6104526112d3565b60405161045f9190613c7a565b60405180910390f35b610482600480360381019061047d9190613528565b6112e0565b60405161049193929190613ce8565b60405180910390f35b6104b460048036038101906104af91906133d6565b6114b9565b005b6104d060048036038101906104cb9190613353565b6114cf565b005b6104ec60048036038101906104e79190613528565b611531565b6040516104fb93929190613ce8565b60405180910390f35b61051e60048036038101906105199190613528565b61167b565b60405161052f959493929190613c95565b60405180910390f35b610552600480360381019061054d9190613528565b6117c7565b60405161055f91906139f8565b60405180910390f35b610582600480360381019061057d9190613528565b61186e565b60405161059193929190613ce8565b60405180910390f35b6105b460048036038101906105af91906134b0565b6119b8565b005b6105d060048036038101906105cb91906132c0565b611bf7565b6040516105dd91906139dd565b60405180910390f35b61060060048036038101906105fb9190613528565b611c8b565b60405161060f93929190613ce8565b60405180910390f35b610632600480360381019061062d9190613528565b611e64565b60405161064193929190613ce8565b60405180910390f35b610664600480360381019061065f9190613528565b611f9e565b604051610671919061394d565b60405180910390f35b60007f80ac58cd000000000000000000000000000000000000000000000000000000007bffffffffffffffffffffffffffffffffffffffffffffffffffffffff1916827bffffffffffffffffffffffffffffffffffffffffffffffffffffffff1916148061074557507f5b5e139f000000000000000000000000000000000000000000000000000000007bffffffffffffffffffffffffffffffffffffffffffffffffffffffff1916827bffffffffffffffffffffffffffffffffffffffffffffffffffffffff1916145b80610755575061075482611fdb565b5b9050919050565b60606000805461076b90614086565b80601f016020809104026020016040519081016040528092919081815260200182805461079790614086565b80156107e45780601f106107b9576101008083540402835291602001916107e4565b820191906000526020600020905b8154815290600101906020018083116107c757829003601f168201915b5050505050905090565b60006107f982612045565b610838576040517f08c379a000000000000000000000000000000000000000000000000000000000815260040161082f90613bda565b60405180910390fd5b6004600083815260200190815260200160002060009054906101000a900473ffffffffffffffffffffffffffffffffffffffff169050919050565b600061087e8261103e565b90508073ffffffffffffffffffffffffffffffffffffffff168373ffffffffffffffffffffffffffffffffffffffff1614156108ef576040517f08c379a00000000000000000000000000000000000000000000000000000000081526004016108e690613c1a565b60405180910390fd5b8073ffffffffffffffffffffffffffffffffffffffff1661090e6120b1565b73ffffffffffffffffffffffffffffffffffffffff16148061093d575061093c816109376120b1565b611bf7565b5b61097c576040517f08c379a000000000000000000000000000000000000000000000000000000000815260040161097390613b3a565b60405180910390fd5b61098683836120b9565b505050565b600660009054906101000a900473ffffffffffffffffffffffffffffffffffffffff1673ffffffffffffffffffffffffffffffffffffffff163373ffffffffffffffffffffffffffffffffffffffff1614610a1b576040517f08c379a0000000000000000000000000000000000000000000000000000000008152600401610a1290613bba565b60405180910390fd5b8060098190555050565b6000806000600854421115610a6f576040517f08c379a0000000000000000000000000000000000000000000000000000000008152600401610a6690613c5a565b60405180910390fd5b6000600d8054905011610ab7576040517f08c379a0000000000000000000000000000000000000000000000000000000008152600401610aae90613a1a565b60405180910390fd5b6000339050600060105490506000610acd612172565b90506000610ada82612196565b905060106000815480929190610aef906140e9565b91905055508015610d5e576000600d8381548110610b1057610b0f61424d565b5b906000526020600020906003020160405180606001604052908160008201548152602001600182018054610b4390614086565b80601f0160208091040260200160405190810160405280929190818152602001828054610b6f90614086565b8015610bbc5780601f10610b9157610100808354040283529160200191610bbc565b820191906000526020600020905b815481529060010190602001808311610b9f57829003601f168201915b50505050508152602001600282018054610bd590614086565b80601f0160208091040260200160405190810160405280929190818152602001828054610c0190614086565b8015610c4e5780601f10610c2357610100808354040283529160200191610c4e565b820191906000526020600020905b815481529060010190602001808311610c3157829003601f168201915b5050505050815250509050600f6040518060a001604052808681526020018773ffffffffffffffffffffffffffffffffffffffff1681526020018581526020018415158152602001836000015181525090806001815401808255809150506001900390600052602060002090600502016000909190919091506000820151816000015560208201518160010160006101000a81548173ffffffffffffffffffffffffffffffffffffffff021916908373ffffffffffffffffffffffffffffffffffffffff1602179055506040820151816002015560608201518160030160006101000a81548160ff021916908315150217905550608082015181600401555050610d5885846121a7565b50610e51565b600f6040518060a001604052808581526020018673ffffffffffffffffffffffffffffffffffffffff1681526020018481526020018315158152602001600081525090806001815401808255809150506001900390600052602060002090600502016000909190919091506000820151816000015560208201518160010160006101000a81548173ffffffffffffffffffffffffffffffffffffffff021916908373ffffffffffffffffffffffffffffffffffffffff1602179055506040820151816002015560608201518160030160006101000a81548160ff0219169083151502179055506080820151816004015550505b82828296509650965050505050909192565b6000600f80549050905090565b610e81610e7b6120b1565b826124c4565b610ec0576040517f08c379a0000000000000000000000000000000000000000000000000000000008152600401610eb790613c3a565b60405180910390fd5b610ecb8383836125a2565b505050565b6000600c80549050905090565b60085481565b610efe838383604051806020016040528060008152506114cf565b505050565b600660009054906101000a900473ffffffffffffffffffffffffffffffffffffffff1673ffffffffffffffffffffffffffffffffffffffff163373ffffffffffffffffffffffffffffffffffffffff1614610f93576040517f08c379a0000000000000000000000000000000000000000000000000000000008152600401610f8a90613bba565b60405180910390fd5b6008544211610fd7576040517f08c379a0000000000000000000000000000000000000000000000000000000008152600401610fce90613afa565b60405180910390fd5b60006001600d80549050610feb9190613eb5565b90505b6000811261103557611022600660009054906101000a900473ffffffffffffffffffffffffffffffffffffffff16826121a7565b808061102d9061403d565b915050610fee565b50565b60095481565b6000806002600084815260200190815260200160002060009054906101000a900473ffffffffffffffffffffffffffffffffffffffff169050600073ffffffffffffffffffffffffffffffffffffffff168173ffffffffffffffffffffffffffffffffffffffff1614156110e7576040517f08c379a00000000000000000000000000000000000000000000000000000000081526004016110de90613b7a565b60405180910390fd5b80915050919050565b60008073ffffffffffffffffffffffffffffffffffffffff168273ffffffffffffffffffffffffffffffffffffffff161415611161576040517f08c379a000000000000000000000000000000000000000000000000000000000815260040161115890613b5a565b60405180910390fd5b600360008373ffffffffffffffffffffffffffffffffffffffff1673ffffffffffffffffffffffffffffffffffffffff168152602001908152602001600020549050919050565b600660009054906101000a900473ffffffffffffffffffffffffffffffffffffffff1681565b6060600180546111dd90614086565b80601f016020809104026020016040519081016040528092919081815260200182805461120990614086565b80156112565780601f1061122b57610100808354040283529160200191611256565b820191906000526020600020905b81548152906001019060200180831161123957829003601f168201915b5050505050905090565b600f818154811061127057600080fd5b90600052602060002090600502016000915090508060000154908060010160009054906101000a900473ffffffffffffffffffffffffffffffffffffffff16908060020154908060030160009054906101000a900460ff16908060040154905085565b6000600d80549050905090565b60006060806000600c805490501180156112fe5750600c8054905084105b61133d576040517f08c379a000000000000000000000000000000000000000000000000000000000815260040161133490613ada565b60405180910390fd5b6000600c85815481106113535761135261424d565b5b90600052602060002090600302016040518060600160405290816000820154815260200160018201805461138690614086565b80601f01602080910402602001604051908101604052809291908181526020018280546113b290614086565b80156113ff5780601f106113d4576101008083540402835291602001916113ff565b820191906000526020600020905b8154815290600101906020018083116113e257829003601f168201915b5050505050815260200160028201805461141890614086565b80601f016020809104026020016040519081016040528092919081815260200182805461144490614086565b80156114915780601f1061146657610100808354040283529160200191611491565b820191906000526020600020905b81548152906001019060200180831161147457829003601f168201915b5050505050815250509050806000015181602001518260400151935093509350509193909250565b6114cb6114c46120b1565b8383612809565b5050565b6114e06114da6120b1565b836124c4565b61151f576040517f08c379a000000000000000000000000000000000000000000000000000000000815260040161151690613c3a565b60405180910390fd5b61152b84848484612976565b50505050565b600d818154811061154157600080fd5b906000526020600020906003020160009150905080600001549080600101805461156a90614086565b80601f016020809104026020016040519081016040528092919081815260200182805461159690614086565b80156115e35780601f106115b8576101008083540402835291602001916115e3565b820191906000526020600020905b8154815290600101906020018083116115c657829003601f168201915b5050505050908060020180546115f890614086565b80601f016020809104026020016040519081016040528092919081815260200182805461162490614086565b80156116715780601f1061164657610100808354040283529160200191611671565b820191906000526020600020905b81548152906001019060200180831161165457829003601f168201915b5050505050905083565b600080600080600080600f8054905011801561169b5750600f8054905086105b6116da576040517f08c379a00000000000000000000000000000000000000000000000000000000081526004016116d190613ada565b60405180910390fd5b6000600f87815481106116f0576116ef61424d565b5b90600052602060002090600502016040518060a0016040529081600082015481526020016001820160009054906101000a900473ffffffffffffffffffffffffffffffffffffffff1673ffffffffffffffffffffffffffffffffffffffff1673ffffffffffffffffffffffffffffffffffffffff168152602001600282015481526020016003820160009054906101000a900460ff16151515158152602001600482015481525050905080600001518160200151826040015183606001518460800151955095509550955095505091939590929450565b60606117d282612045565b611811576040517f08c379a000000000000000000000000000000000000000000000000000000000815260040161180890613bfa565b60405180910390fd5b600061181b6129d2565b9050600081511161183b5760405180602001604052806000815250611866565b80611845846129e9565b6040516020016118569291906138ec565b6040516020818303038152906040525b915050919050565b600c818154811061187e57600080fd5b90600052602060002090600302016000915090508060000154908060010180546118a790614086565b80601f01602080910402602001604051908101604052809291908181526020018280546118d390614086565b80156119205780601f106118f557610100808354040283529160200191611920565b820191906000526020600020905b81548152906001019060200180831161190357829003601f168201915b50505050509080600201805461193590614086565b80601f016020809104026020016040519081016040528092919081815260200182805461196190614086565b80156119ae5780601f10611983576101008083540402835291602001916119ae565b820191906000526020600020905b81548152906001019060200180831161199157829003601f168201915b5050505050905083565b600660009054906101000a900473ffffffffffffffffffffffffffffffffffffffff1673ffffffffffffffffffffffffffffffffffffffff163373ffffffffffffffffffffffffffffffffffffffff1614611a48576040517f08c379a0000000000000000000000000000000000000000000000000000000008152600401611a3f90613bba565b60405180910390fd5b6000600a549050611a7b600660009054906101000a900473ffffffffffffffffffffffffffffffffffffffff1682612b4a565b6000604051806060016040528083815260200185815260200184815250905080600b6000848152602001908152602001600020600082015181600001556020820151816001019080519060200190611ad4929190612fda565b506040820151816002019080519060200190611af1929190612fda565b50905050600c819080600181540180825580915050600190039060005260206000209060030201600090919091909150600082015181600001556020820151816001019080519060200190611b47929190612fda565b506040820151816002019080519060200190611b64929190612fda565b505050600d819080600181540180825580915050600190039060005260206000209060030201600090919091909150600082015181600001556020820151816001019080519060200190611bb9929190612fda565b506040820151816002019080519060200190611bd6929190612fda565b505050600a6000815480929190611bec906140e9565b919050555050505050565b6000600560008473ffffffffffffffffffffffffffffffffffffffff1673ffffffffffffffffffffffffffffffffffffffff16815260200190815260200160002060008373ffffffffffffffffffffffffffffffffffffffff1673ffffffffffffffffffffffffffffffffffffffff16815260200190815260200160002060009054906101000a900460ff16905092915050565b60006060806000600d80549050118015611ca95750600d8054905084105b611ce8576040517f08c379a0000000000000000000000000000000000000000000000000000000008152600401611cdf90613ada565b60405180910390fd5b6000600d8581548110611cfe57611cfd61424d565b5b906000526020600020906003020160405180606001604052908160008201548152602001600182018054611d3190614086565b80601f0160208091040260200160405190810160405280929190818152602001828054611d5d90614086565b8015611daa5780601f10611d7f57610100808354040283529160200191611daa565b820191906000526020600020905b815481529060010190602001808311611d8d57829003601f168201915b50505050508152602001600282018054611dc390614086565b80601f0160208091040260200160405190810160405280929190818152602001828054611def90614086565b8015611e3c5780601f10611e1157610100808354040283529160200191611e3c565b820191906000526020600020905b815481529060010190602001808311611e1f57829003601f168201915b5050505050815250509050806000015181602001518260400151935093509350509193909250565b600b602052806000526040600020600091509050806000015490806001018054611e8d90614086565b80601f0160208091040260200160405190810160405280929190818152602001828054611eb990614086565b8015611f065780601f10611edb57610100808354040283529160200191611f06565b820191906000526020600020905b815481529060010190602001808311611ee957829003601f168201915b505050505090806002018054611f1b90614086565b80601f0160208091040260200160405190810160405280929190818152602001828054611f4790614086565b8015611f945780601f10611f6957610100808354040283529160200191611f94565b820191906000526020600020905b815481529060010190602001808311611f7757829003601f168201915b5050505050905083565b6000600e600083815260200190815260200160002060009054906101000a900473ffffffffffffffffffffffffffffffffffffffff169050919050565b60007f01ffc9a7000000000000000000000000000000000000000000000000000000007bffffffffffffffffffffffffffffffffffffffffffffffffffffffff1916827bffffffffffffffffffffffffffffffffffffffffffffffffffffffff1916149050919050565b60008073ffffffffffffffffffffffffffffffffffffffff166002600084815260200190815260200160002060009054906101000a900473ffffffffffffffffffffffffffffffffffffffff1673ffffffffffffffffffffffffffffffffffffffff1614159050919050565b600033905090565b816004600083815260200190815260200160002060006101000a81548173ffffffffffffffffffffffffffffffffffffffff021916908373ffffffffffffffffffffffffffffffffffffffff160217905550808273ffffffffffffffffffffffffffffffffffffffff1661212c8361103e565b73ffffffffffffffffffffffffffffffffffffffff167f8c5be1e5ebec7d5bd14f71427d1e84f3dd0314c0f7b2291e5b200ac8c7c3b92560405160405180910390a45050565b60006121916000600954600d8054905061218c9190613e2e565b612b68565b905090565b6000600d8054905082109050919050565b6000600d82815481106121bd576121bc61424d565b5b9060005260206000209060030201604051806060016040529081600082015481526020016001820180546121f090614086565b80601f016020809104026020016040519081016040528092919081815260200182805461221c90614086565b80156122695780601f1061223e57610100808354040283529160200191612269565b820191906000526020600020905b81548152906001019060200180831161224c57829003601f168201915b5050505050815260200160028201805461228290614086565b80601f01602080910402602001604051908101604052809291908181526020018280546122ae90614086565b80156122fb5780601f106122d0576101008083540402835291602001916122fb565b820191906000526020600020905b8154815290600101906020018083116122de57829003601f168201915b505050505081525050905082600e60008360000151815260200190815260200160002060006101000a81548173ffffffffffffffffffffffffffffffffffffffff021916908373ffffffffffffffffffffffffffffffffffffffff16021790555061238d600660009054906101000a900473ffffffffffffffffffffffffffffffffffffffff16848360000151610ee3565b7f8f62664a620f38b1375d1701a9cfa2e940224675cec78b687daecc3de4b70de38382600001516040516123c29291906139b4565b60405180910390a1600d6001600d805490506123de9190613f49565b815481106123ef576123ee61424d565b5b9060005260206000209060030201600d83815481106124115761241061424d565b5b906000526020600020906003020160008201548160000155600182018160010190805461243d90614086565b612448929190613060565b50600282018160020190805461245d90614086565b612468929190613060565b50905050600d80548061247e5761247d61421e565b5b60019003818190600052602060002090600302016000808201600090556001820160006124ab91906130ed565b6002820160006124bb91906130ed565b50509055505050565b60006124cf82612045565b61250e576040517f08c379a000000000000000000000000000000000000000000000000000000000815260040161250590613b1a565b60405180910390fd5b60006125198361103e565b90508073ffffffffffffffffffffffffffffffffffffffff168473ffffffffffffffffffffffffffffffffffffffff16148061255b575061255a8185611bf7565b5b8061259957508373ffffffffffffffffffffffffffffffffffffffff16612581846107ee565b73ffffffffffffffffffffffffffffffffffffffff16145b91505092915050565b8273ffffffffffffffffffffffffffffffffffffffff166125c28261103e565b73ffffffffffffffffffffffffffffffffffffffff1614612618576040517f08c379a000000000000000000000000000000000000000000000000000000000815260040161260f90613a5a565b60405180910390fd5b600073ffffffffffffffffffffffffffffffffffffffff168273ffffffffffffffffffffffffffffffffffffffff161415612688576040517f08c379a000000000000000000000000000000000000000000000000000000000815260040161267f90613a9a565b60405180910390fd5b612693838383612be1565b61269e6000826120b9565b6001600360008573ffffffffffffffffffffffffffffffffffffffff1673ffffffffffffffffffffffffffffffffffffffff16815260200190815260200160002060008282546126ee9190613f49565b925050819055506001600360008473ffffffffffffffffffffffffffffffffffffffff1673ffffffffffffffffffffffffffffffffffffffff16815260200190815260200160002060008282546127459190613e2e565b92505081905550816002600083815260200190815260200160002060006101000a81548173ffffffffffffffffffffffffffffffffffffffff021916908373ffffffffffffffffffffffffffffffffffffffff160217905550808273ffffffffffffffffffffffffffffffffffffffff168473ffffffffffffffffffffffffffffffffffffffff167fddf252ad1be2c89b69c2b068fc378daa952ba7f163c4a11628f55a4df523b3ef60405160405180910390a4612804838383612be6565b505050565b8173ffffffffffffffffffffffffffffffffffffffff168373ffffffffffffffffffffffffffffffffffffffff161415612878576040517f08c379a000000000000000000000000000000000000000000000000000000000815260040161286f90613aba565b60405180910390fd5b80600560008573ffffffffffffffffffffffffffffffffffffffff1673ffffffffffffffffffffffffffffffffffffffff16815260200190815260200160002060008473ffffffffffffffffffffffffffffffffffffffff1673ffffffffffffffffffffffffffffffffffffffff16815260200190815260200160002060006101000a81548160ff0219169083151502179055508173ffffffffffffffffffffffffffffffffffffffff168373ffffffffffffffffffffffffffffffffffffffff167f17307eab39ab6107e8899845ad3d59bd9653f200f220920489ca2b5937696c318360405161296991906139dd565b60405180910390a3505050565b6129818484846125a2565b61298d84848484612beb565b6129cc576040517f08c379a00000000000000000000000000000000000000000000000000000000081526004016129c390613a3a565b60405180910390fd5b50505050565b606060405180602001604052806000815250905090565b60606000821415612a31576040518060400160405280600181526020017f30000000000000000000000000000000000000000000000000000000000000008152509050612b45565b600082905060005b60008214612a63578080612a4c906140e9565b915050600a82612a5c9190613e84565b9150612a39565b60008167ffffffffffffffff811115612a7f57612a7e61427c565b5b6040519080825280601f01601f191660200182016040528015612ab15781602001600182028036833780820191505090505b5090505b60008514612b3e57600182612aca9190613f49565b9150600a85612ad99190614160565b6030612ae59190613e2e565b60f81b818381518110612afb57612afa61424d565b5b60200101907effffffffffffffffffffffffffffffffffffffffffffffffffffffffffffff1916908160001a905350600a85612b379190613e84565b9450612ab5565b8093505050505b919050565b612b64828260405180602001604052806000815250612d82565b5050565b600060076000815480929190612b7d906140e9565b919050555060004233600754604051602001612b9b93929190613910565b6040516020818303038152906040528051906020012060001c9050838385612bc39190613e2e565b82612bce9190614160565b612bd89190613f49565b91505092915050565b505050565b505050565b6000612c0c8473ffffffffffffffffffffffffffffffffffffffff16612ddd565b15612d75578373ffffffffffffffffffffffffffffffffffffffff1663150b7a02612c356120b1565b8786866040518563ffffffff1660e01b8152600401612c579493929190613968565b602060405180830381600087803b158015612c7157600080fd5b505af1925050508015612ca257506040513d601f19601f82011682018060405250810190612c9f9190613483565b60015b612d25573d8060008114612cd2576040519150601f19603f3d011682016040523d82523d6000602084013e612cd7565b606091505b50600081511415612d1d576040517f08c379a0000000000000000000000000000000000000000000000000000000008152600401612d1490613a3a565b60405180910390fd5b805181602001fd5b63150b7a0260e01b7bffffffffffffffffffffffffffffffffffffffffffffffffffffffff1916817bffffffffffffffffffffffffffffffffffffffffffffffffffffffff191614915050612d7a565b600190505b949350505050565b612d8c8383612e00565b612d996000848484612beb565b612dd8576040517f08c379a0000000000000000000000000000000000000000000000000000000008152600401612dcf90613a3a565b60405180910390fd5b505050565b6000808273ffffffffffffffffffffffffffffffffffffffff163b119050919050565b600073ffffffffffffffffffffffffffffffffffffffff168273ffffffffffffffffffffffffffffffffffffffff161415612e70576040517f08c379a0000000000000000000000000000000000000000000000000000000008152600401612e6790613b9a565b60405180910390fd5b612e7981612045565b15612eb9576040517f08c379a0000000000000000000000000000000000000000000000000000000008152600401612eb090613a7a565b60405180910390fd5b612ec560008383612be1565b6001600360008473ffffffffffffffffffffffffffffffffffffffff1673ffffffffffffffffffffffffffffffffffffffff1681526020019081526020016000206000828254612f159190613e2e565b92505081905550816002600083815260200190815260200160002060006101000a81548173ffffffffffffffffffffffffffffffffffffffff021916908373ffffffffffffffffffffffffffffffffffffffff160217905550808273ffffffffffffffffffffffffffffffffffffffff16600073ffffffffffffffffffffffffffffffffffffffff167fddf252ad1be2c89b69c2b068fc378daa952ba7f163c4a11628f55a4df523b3ef60405160405180910390a4612fd660008383612be6565b5050565b828054612fe690614086565b90600052602060002090601f016020900481019282613008576000855561304f565b82601f1061302157805160ff191683800117855561304f565b8280016001018555821561304f579182015b8281111561304e578251825591602001919060010190613033565b5b50905061305c919061312d565b5090565b82805461306c90614086565b90600052602060002090601f01602090048101928261308e57600085556130dc565b82601f1061309f57805485556130dc565b828001600101855582156130dc57600052602060002091601f016020900482015b828111156130db5782548255916001019190600101906130c0565b5b5090506130e9919061312d565b5090565b5080546130f990614086565b6000825580601f1061310b575061312a565b601f016020900490600052602060002090810190613129919061312d565b5b50565b5b8082111561314657600081600090555060010161312e565b5090565b600061315d61315884613d89565b613d64565b905082815260208101848484011115613179576131786142b0565b5b613184848285613ffb565b509392505050565b600061319f61319a84613dba565b613d64565b9050828152602081018484840111156131bb576131ba6142b0565b5b6131c6848285613ffb565b509392505050565b6000813590506131dd816147b0565b92915050565b6000813590506131f2816147c7565b92915050565b600081359050613207816147de565b92915050565b60008151905061321c816147de565b92915050565b600082601f830112613237576132366142ab565b5b813561324784826020860161314a565b91505092915050565b600082601f830112613265576132646142ab565b5b813561327584826020860161318c565b91505092915050565b60008135905061328d816147f5565b92915050565b6000602082840312156132a9576132a86142ba565b5b60006132b7848285016131ce565b91505092915050565b600080604083850312156132d7576132d66142ba565b5b60006132e5858286016131ce565b92505060206132f6858286016131ce565b9150509250929050565b600080600060608486031215613319576133186142ba565b5b6000613327868287016131ce565b9350506020613338868287016131ce565b92505060406133498682870161327e565b9150509250925092565b6000806000806080858703121561336d5761336c6142ba565b5b600061337b878288016131ce565b945050602061338c878288016131ce565b935050604061339d8782880161327e565b925050606085013567ffffffffffffffff8111156133be576133bd6142b5565b5b6133ca87828801613222565b91505092959194509250565b600080604083850312156133ed576133ec6142ba565b5b60006133fb858286016131ce565b925050602061340c858286016131e3565b9150509250929050565b6000806040838503121561342d5761342c6142ba565b5b600061343b858286016131ce565b925050602061344c8582860161327e565b9150509250929050565b60006020828403121561346c5761346b6142ba565b5b600061347a848285016131f8565b91505092915050565b600060208284031215613499576134986142ba565b5b60006134a78482850161320d565b91505092915050565b600080604083850312156134c7576134c66142ba565b5b600083013567ffffffffffffffff8111156134e5576134e46142b5565b5b6134f185828601613250565b925050602083013567ffffffffffffffff811115613512576135116142b5565b5b61351e85828601613250565b9150509250929050565b60006020828403121561353e5761353d6142ba565b5b600061354c8482850161327e565b91505092915050565b61355e81613f7d565b82525050565b61357561357082613f7d565b614132565b82525050565b61358481613f8f565b82525050565b600061359582613deb565b61359f8185613e01565b93506135af81856020860161400a565b6135b8816142bf565b840191505092915050565b60006135ce82613df6565b6135d88185613e12565b93506135e881856020860161400a565b6135f1816142bf565b840191505092915050565b600061360782613df6565b6136118185613e23565b935061362181856020860161400a565b80840191505092915050565b600061363a601883613e12565b9150613645826142dd565b602082019050919050565b600061365d603283613e12565b915061366882614306565b604082019050919050565b6000613680602583613e12565b915061368b82614355565b604082019050919050565b60006136a3601c83613e12565b91506136ae826143a4565b602082019050919050565b60006136c6602483613e12565b91506136d1826143cd565b604082019050919050565b60006136e9601983613e12565b91506136f48261441c565b602082019050919050565b600061370c601283613e12565b915061371782614445565b602082019050919050565b600061372f601583613e12565b915061373a8261446e565b602082019050919050565b6000613752602c83613e12565b915061375d82614497565b604082019050919050565b6000613775603883613e12565b9150613780826144e6565b604082019050919050565b6000613798602a83613e12565b91506137a382614535565b604082019050919050565b60006137bb602983613e12565b91506137c682614584565b604082019050919050565b60006137de602083613e12565b91506137e9826145d3565b602082019050919050565b6000613801602283613e12565b915061380c826145fc565b604082019050919050565b6000613824602c83613e12565b915061382f8261464b565b604082019050919050565b6000613847602f83613e12565b91506138528261469a565b604082019050919050565b600061386a602183613e12565b9150613875826146e9565b604082019050919050565b600061388d603183613e12565b915061389882614738565b604082019050919050565b60006138b0600d83613e12565b91506138bb82614787565b602082019050919050565b6138cf81613ff1565b82525050565b6138e66138e182613ff1565b614156565b82525050565b60006138f882856135fc565b915061390482846135fc565b91508190509392505050565b600061391c82866138d5565b60208201915061392c8285613564565b60148201915061393c82846138d5565b602082019150819050949350505050565b60006020820190506139626000830184613555565b92915050565b600060808201905061397d6000830187613555565b61398a6020830186613555565b61399760408301856138c6565b81810360608301526139a9818461358a565b905095945050505050565b60006040820190506139c96000830185613555565b6139d660208301846138c6565b9392505050565b60006020820190506139f2600083018461357b565b92915050565b60006020820190508181036000830152613a1281846135c3565b905092915050565b60006020820190508181036000830152613a338161362d565b9050919050565b60006020820190508181036000830152613a5381613650565b9050919050565b60006020820190508181036000830152613a7381613673565b9050919050565b60006020820190508181036000830152613a9381613696565b9050919050565b60006020820190508181036000830152613ab3816136b9565b9050919050565b60006020820190508181036000830152613ad3816136dc565b9050919050565b60006020820190508181036000830152613af3816136ff565b9050919050565b60006020820190508181036000830152613b1381613722565b9050919050565b60006020820190508181036000830152613b3381613745565b9050919050565b60006020820190508181036000830152613b5381613768565b9050919050565b60006020820190508181036000830152613b738161378b565b9050919050565b60006020820190508181036000830152613b93816137ae565b9050919050565b60006020820190508181036000830152613bb3816137d1565b9050919050565b60006020820190508181036000830152613bd3816137f4565b9050919050565b60006020820190508181036000830152613bf381613817565b9050919050565b60006020820190508181036000830152613c138161383a565b9050919050565b60006020820190508181036000830152613c338161385d565b9050919050565b60006020820190508181036000830152613c5381613880565b9050919050565b60006020820190508181036000830152613c73816138a3565b9050919050565b6000602082019050613c8f60008301846138c6565b92915050565b600060a082019050613caa60008301886138c6565b613cb76020830187613555565b613cc460408301866138c6565b613cd1606083018561357b565b613cde60808301846138c6565b9695505050505050565b6000606082019050613cfd60008301866138c6565b8181036020830152613d0f81856135c3565b90508181036040830152613d2381846135c3565b9050949350505050565b6000606082019050613d4260008301866138c6565b613d4f60208301856138c6565b613d5c604083018461357b565b949350505050565b6000613d6e613d7f565b9050613d7a82826140b8565b919050565b6000604051905090565b600067ffffffffffffffff821115613da457613da361427c565b5b613dad826142bf565b9050602081019050919050565b600067ffffffffffffffff821115613dd557613dd461427c565b5b613dde826142bf565b9050602081019050919050565b600081519050919050565b600081519050919050565b600082825260208201905092915050565b600082825260208201905092915050565b600081905092915050565b6000613e3982613ff1565b9150613e4483613ff1565b9250827fffffffffffffffffffffffffffffffffffffffffffffffffffffffffffffffff03821115613e7957613e78614191565b5b828201905092915050565b6000613e8f82613ff1565b9150613e9a83613ff1565b925082613eaa57613ea96141c0565b5b828204905092915050565b6000613ec082613fc7565b9150613ecb83613fc7565b9250827f800000000000000000000000000000000000000000000000000000000000000001821260008412151615613f0657613f05614191565b5b827f7fffffffffffffffffffffffffffffffffffffffffffffffffffffffffffffff018213600084121615613f3e57613f3d614191565b5b828203905092915050565b6000613f5482613ff1565b9150613f5f83613ff1565b925082821015613f7257613f71614191565b5b828203905092915050565b6000613f8882613fd1565b9050919050565b60008115159050919050565b60007fffffffff0000000000000000000000000000000000000000000000000000000082169050919050565b6000819050919050565b600073ffffffffffffffffffffffffffffffffffffffff82169050919050565b6000819050919050565b82818337600083830152505050565b60005b8381101561402857808201518184015260208101905061400d565b83811115614037576000848401525b50505050565b600061404882613fc7565b91507f800000000000000000000000000000000000000000000000000000000000000082141561407b5761407a614191565b5b600182039050919050565b6000600282049050600182168061409e57607f821691505b602082108114156140b2576140b16141ef565b5b50919050565b6140c1826142bf565b810181811067ffffffffffffffff821117156140e0576140df61427c565b5b80604052505050565b60006140f482613ff1565b91507fffffffffffffffffffffffffffffffffffffffffffffffffffffffffffffffff82141561412757614126614191565b5b600182019050919050565b600061413d82614144565b9050919050565b600061414f826142d0565b9050919050565b6000819050919050565b600061416b82613ff1565b915061417683613ff1565b925082614186576141856141c0565b5b828206905092915050565b7f4e487b7100000000000000000000000000000000000000000000000000000000600052601160045260246000fd5b7f4e487b7100000000000000000000000000000000000000000000000000000000600052601260045260246000fd5b7f4e487b7100000000000000000000000000000000000000000000000000000000600052602260045260246000fd5b7f4e487b7100000000000000000000000000000000000000000000000000000000600052603160045260246000fd5b7f4e487b7100000000000000000000000000000000000000000000000000000000600052603260045260246000fd5b7f4e487b7100000000000000000000000000000000000000000000000000000000600052604160045260246000fd5b600080fd5b600080fd5b600080fd5b600080fd5b6000601f19601f8301169050919050565b60008160601b9050919050565b7f546865726520617265206e6f207072697a6573206c6566740000000000000000600082015250565b7f4552433732313a207472616e7366657220746f206e6f6e20455243373231526560008201527f63656976657220696d706c656d656e7465720000000000000000000000000000602082015250565b7f4552433732313a207472616e736665722066726f6d20696e636f72726563742060008201527f6f776e6572000000000000000000000000000000000000000000000000000000602082015250565b7f4552433732313a20746f6b656e20616c7265616479206d696e74656400000000600082015250565b7f4552433732313a207472616e7366657220746f20746865207a65726f2061646460008201527f7265737300000000000000000000000000000000000000000000000000000000602082015250565b7f4552433732313a20617070726f766520746f2063616c6c657200000000000000600082015250565b7f496e646578206f7574206f6620626f756e640000000000000000000000000000600082015250565b7f43616d7061696e20686173206e6f7420656e6465640000000000000000000000600082015250565b7f4552433732313a206f70657261746f7220717565727920666f72206e6f6e657860008201527f697374656e7420746f6b656e0000000000000000000000000000000000000000602082015250565b7f4552433732313a20617070726f76652063616c6c6572206973206e6f74206f7760008201527f6e6572206e6f7220617070726f76656420666f7220616c6c0000000000000000602082015250565b7f4552433732313a2062616c616e636520717565727920666f7220746865207a6560008201527f726f206164647265737300000000000000000000000000000000000000000000602082015250565b7f4552433732313a206f776e657220717565727920666f72206e6f6e657869737460008201527f656e7420746f6b656e0000000000000000000000000000000000000000000000602082015250565b7f4552433732313a206d696e7420746f20746865207a65726f2061646472657373600082015250565b7f4f6e6c79206f776e657220697320616c6c6f77656420746f2063616c6c20746860008201527f6973000000000000000000000000000000000000000000000000000000000000602082015250565b7f4552433732313a20617070726f76656420717565727920666f72206e6f6e657860008201527f697374656e7420746f6b656e0000000000000000000000000000000000000000602082015250565b7f4552433732314d657461646174613a2055524920717565727920666f72206e6f60008201527f6e6578697374656e7420746f6b656e0000000000000000000000000000000000602082015250565b7f4552433732313a20617070726f76616c20746f2063757272656e74206f776e6560008201527f7200000000000000000000000000000000000000000000000000000000000000602082015250565b7f4552433732313a207472616e736665722063616c6c6572206973206e6f74206f60008201527f776e6572206e6f7220617070726f766564000000000000000000000000000000602082015250565b7f43616d7061696e20656e64656400000000000000000000000000000000000000600082015250565b6147b981613f7d565b81146147c457600080fd5b50565b6147d081613f8f565b81146147db57600080fd5b50565b6147e781613f9b565b81146147f257600080fd5b50565b6147fe81613ff1565b811461480957600080fd5b5056fea26469706673582212209bbe38174506aa8932bcb1343f421252a355d1e7a8bea91f72a7aba8f9e9bcdc64736f6c63430008070033",
  "immutableReferences": {},
  "source": "// SPDX-License-Identifier: MIT\r\n\r\npragma solidity ^0.8.0;\r\n\r\nimport \"@openzeppelin/contracts/token/ERC721/ERC721.sol\";\r\n\r\ncontract PrizeRaffle is ERC721 {\r\n    address public owner;\r\n    uint256 private randNonce = 0;\r\n\r\n    uint256 public endTime;\r\n    \r\n    // Determine how hard to draw a prize\r\n    uint public emptyPoolSize;\r\n    uint nextPrizeId = 0;\r\n\r\n    struct Prize {\r\n        uint id;\r\n        string image;\r\n        string description;\r\n    }\r\n\r\n    mapping (uint256 => Prize) public prizes;\r\n    Prize[] public prizeDetails;\r\n    Prize[] public availablePrizes;    // Prizes left\r\n    mapping (uint256 => address) internal prizeWinners;   // Token ID to winner mapping\r\n\r\n    struct DrawDetail {\r\n        uint256 id;\r\n        address drawer;\r\n        uint drawIndex;\r\n        bool isWon;\r\n        uint prizeWon;\r\n    }\r\n\r\n    event PrizeWonTranfer (\r\n        address winner,\r\n        uint prizeId\r\n    );\r\n\r\n    DrawDetail[] public drawDetail;\r\n    uint256 nextDrawId = 0;\r\n\r\n    constructor(\r\n        string memory name,\r\n        string memory symbol,\r\n        uint256 _endTime,\r\n        uint _emptyPoolSize\r\n    ) ERC721(name, symbol) {\r\n        owner = msg.sender;\r\n        endTime = _endTime;\r\n        emptyPoolSize = _emptyPoolSize;\r\n    }\r\n\r\n    function updateEmptyPool(uint _newEmptyPoolSize) external onlyOwner {\r\n        emptyPoolSize = _newEmptyPoolSize;\r\n    }\r\n\r\n    function addPrize(string memory _image, string memory _description) external onlyOwner {\r\n        uint id = nextPrizeId;\r\n        _safeMint(owner, id);\r\n        Prize memory newPrize = Prize(id, _image, _description);\r\n        prizes[id] = newPrize;\r\n        prizeDetails.push(newPrize);\r\n        availablePrizes.push(newPrize);\r\n        nextPrizeId++;\r\n    }\r\n\r\n    function draw() external canDraw returns (uint256, uint, bool) {\r\n        address drawer = msg.sender;\r\n        uint256 drawId = nextDrawId;\r\n        uint prizeIndex = drawPossiblePrize();\r\n        bool isWon = isPrizeAvailable(prizeIndex);\r\n        nextDrawId++;\r\n        if (isWon) {\r\n            Prize memory prizeWon = availablePrizes[prizeIndex];\r\n            drawDetail.push(DrawDetail(drawId, drawer, prizeIndex, isWon, prizeWon.id));\r\n            transferPrize(drawer, prizeIndex);\r\n        } else {\r\n            drawDetail.push(DrawDetail(drawId, drawer, prizeIndex, isWon, 0));\r\n        }\r\n        return (drawId, prizeIndex, isWon);\r\n    }\r\n\r\n    function transferPrize(address to, uint indexId) internal {\r\n        Prize memory transfer = availablePrizes[indexId];\r\n        prizeWinners[transfer.id] = to;\r\n        safeTransferFrom(owner, to, transfer.id);\r\n        emit PrizeWonTranfer(to, transfer.id);\r\n\r\n        // Remove from available prize pool\r\n        availablePrizes[indexId] = availablePrizes[availablePrizes.length - 1];\r\n        availablePrizes.pop();\r\n    }\r\n\r\n    function isPrizeAvailable(uint index) internal view returns (bool) {\r\n        return (index < availablePrizes.length);\r\n    }\r\n\r\n    function drawPossiblePrize() internal returns (uint) {\r\n        return rand(0, availablePrizes.length + emptyPoolSize);\r\n    }\r\n\r\n    // Probably not safe\r\n    function rand(uint min, uint max) internal returns (uint) {\r\n        randNonce++;\r\n        uint rawRandom = uint(keccak256(abi.encodePacked(block.timestamp, msg.sender, randNonce)));\r\n        return (rawRandom % (min + max) - min);\r\n    }\r\n\r\n    function withdrawPrize() external onlyOwner {\r\n        require(block.timestamp > endTime, \"Campain has not ended\");\r\n        for (int i = int(availablePrizes.length) - 1; i >= 0; i--) {\r\n            transferPrize(owner, uint(i));\r\n        }\r\n    }\r\n\r\n    // Views =====================================\r\n    function getPrizesLength() external view returns (uint) {\r\n        return prizeDetails.length;\r\n    }\r\n\r\n    function getPrize(uint index) external view returns (uint, string memory, string memory) {\r\n        require(prizeDetails.length > 0 && index < prizeDetails.length, \"Index out of bound\");\r\n        Prize memory prize = prizeDetails[index];\r\n        return (prize.id, prize.image, prize.description);\r\n    }\r\n\r\n    function getAvailablePrizesLength() external view returns (uint) {\r\n        return availablePrizes.length;\r\n    }\r\n\r\n    function getAvailablePrize(uint index) external view returns (uint, string memory, string memory) {\r\n        require(availablePrizes.length > 0 && index < availablePrizes.length, \"Index out of bound\");\r\n        Prize memory prize = availablePrizes[index];\r\n        return (prize.id, prize.image, prize.description);\r\n    }\r\n\r\n    function getDrawLength() external view returns (uint) {\r\n        return drawDetail.length;\r\n    }\r\n\r\n    function getDraw(uint index) external view returns (uint, address, uint, bool, uint) {\r\n        require(drawDetail.length > 0 && index < drawDetail.length, \"Index out of bound\");\r\n        DrawDetail memory detail = drawDetail[index];\r\n        return (detail.id, detail.drawer, detail.drawIndex, detail.isWon, detail.prizeWon);\r\n    }\r\n\r\n    function getPrizeOwner(uint256 id) external view returns (address) {\r\n        return prizeWinners[id];\r\n    }\r\n\r\n    // Modifiers =================================\r\n    modifier onlyOwner() {\r\n        require(msg.sender == owner, \"Only owner is allowed to call this\");\r\n        _;\r\n    }\r\n\r\n    modifier canDraw() {\r\n        require(block.timestamp <= endTime, \"Campain ended\");\r\n        require(availablePrizes.length > 0, \"There are no prizes left\");\r\n        _;\r\n    }\r\n}\r\n",
  "sourcePath": "D:\\_Working\\new_techs\\crypto\\raffle\\source\\smartcontract\\contracts\\PrizeRaffle.sol",
  "compiler": {
    "name": "solc",
    "version": "0.8.7+commit.e28d00a7.Emscripten.clang"
  },
  "schemaVersion": "3.4.4",
  "updatedAt": "2022-05-24T11:51:33.571Z",
  "networkType": "ethereum",
  "devdoc": {
    "kind": "dev",
    "methods": {
      "approve(address,uint256)": {
        "details": "See {IERC721-approve}."
      },
      "balanceOf(address)": {
        "details": "See {IERC721-balanceOf}."
      },
      "getApproved(uint256)": {
        "details": "See {IERC721-getApproved}."
      },
      "isApprovedForAll(address,address)": {
        "details": "See {IERC721-isApprovedForAll}."
      },
      "name()": {
        "details": "See {IERC721Metadata-name}."
      },
      "ownerOf(uint256)": {
        "details": "See {IERC721-ownerOf}."
      },
      "safeTransferFrom(address,address,uint256)": {
        "details": "See {IERC721-safeTransferFrom}."
      },
      "safeTransferFrom(address,address,uint256,bytes)": {
        "details": "See {IERC721-safeTransferFrom}."
      },
      "setApprovalForAll(address,bool)": {
        "details": "See {IERC721-setApprovalForAll}."
      },
      "supportsInterface(bytes4)": {
        "details": "See {IERC165-supportsInterface}."
      },
      "symbol()": {
        "details": "See {IERC721Metadata-symbol}."
      },
      "tokenURI(uint256)": {
        "details": "See {IERC721Metadata-tokenURI}."
      },
      "transferFrom(address,address,uint256)": {
        "details": "See {IERC721-transferFrom}."
      }
    },
    "version": 1
  },
  "userdoc": {
    "kind": "user",
    "methods": {},
    "version": 1
  }
}