{
  "contractName": "PrizeRaffle",
  "abi": [
    {
      "inputs": [
        {
          "internalType": "string",
          "name": "name",
          "type": "string"
        },
        {
          "internalType": "string",
          "name": "symbol",
          "type": "string"
        },
        {
          "internalType": "uint256",
          "name": "_endTime",
          "type": "uint256"
        },
        {
          "internalType": "uint256",
          "name": "_emptyPoolSize",
          "type": "uint256"
        }
      ],
      "stateMutability": "nonpayable",
      "type": "constructor"
    },
    {
      "anonymous": false,
      "inputs": [
        {
          "indexed": true,
          "internalType": "address",
          "name": "owner",
          "type": "address"
        },
        {
          "indexed": true,
          "internalType": "address",
          "name": "approved",
          "type": "address"
        },
        {
          "indexed": true,
          "internalType": "uint256",
          "name": "tokenId",
          "type": "uint256"
        }
      ],
      "name": "Approval",
      "type": "event"
    },
    {
      "anonymous": false,
      "inputs": [
        {
          "indexed": true,
          "internalType": "address",
          "name": "owner",
          "type": "address"
        },
        {
          "indexed": true,
          "internalType": "address",
          "name": "operator",
          "type": "address"
        },
        {
          "indexed": false,
          "internalType": "bool",
          "name": "approved",
          "type": "bool"
        }
      ],
      "name": "ApprovalForAll",
      "type": "event"
    },
    {
      "anonymous": false,
      "inputs": [
        {
          "indexed": false,
          "internalType": "address",
          "name": "winner",
          "type": "address"
        },
        {
          "indexed": false,
          "internalType": "uint256",
          "name": "prizeId",
          "type": "uint256"
        }
      ],
      "name": "PrizeWonTranfer",
      "type": "event"
    },
    {
      "anonymous": false,
      "inputs": [
        {
          "indexed": true,
          "internalType": "address",
          "name": "from",
          "type": "address"
        },
        {
          "indexed": true,
          "internalType": "address",
          "name": "to",
          "type": "address"
        },
        {
          "indexed": true,
          "internalType": "uint256",
          "name": "tokenId",
          "type": "uint256"
        }
      ],
      "name": "Transfer",
      "type": "event"
    },
    {
      "inputs": [
        {
          "internalType": "address",
          "name": "to",
          "type": "address"
        },
        {
          "internalType": "uint256",
          "name": "tokenId",
          "type": "uint256"
        }
      ],
      "name": "approve",
      "outputs": [],
      "stateMutability": "nonpayable",
      "type": "function"
    },
    {
      "inputs": [
        {
          "internalType": "uint256",
          "name": "",
          "type": "uint256"
        }
      ],
      "name": "availablePrizes",
      "outputs": [
        {
          "internalType": "uint256",
          "name": "id",
          "type": "uint256"
        },
        {
          "internalType": "string",
          "name": "image",
          "type": "string"
        },
        {
          "internalType": "string",
          "name": "description",
          "type": "string"
        }
      ],
      "stateMutability": "view",
      "type": "function",
      "constant": true
    },
    {
      "inputs": [
        {
          "internalType": "address",
          "name": "owner",
          "type": "address"
        }
      ],
      "name": "balanceOf",
      "outputs": [
        {
          "internalType": "uint256",
          "name": "",
          "type": "uint256"
        }
      ],
      "stateMutability": "view",
      "type": "function",
      "constant": true
    },
    {
      "inputs": [
        {
          "internalType": "uint256",
          "name": "",
          "type": "uint256"
        }
      ],
      "name": "drawDetail",
      "outputs": [
        {
          "internalType": "uint256",
          "name": "id",
          "type": "uint256"
        },
        {
          "internalType": "address",
          "name": "drawer",
          "type": "address"
        },
        {
          "internalType": "uint256",
          "name": "drawIndex",
          "type": "uint256"
        },
        {
          "internalType": "bool",
          "name": "isWon",
          "type": "bool"
        },
        {
          "internalType": "uint256",
          "name": "prizeWon",
          "type": "uint256"
        }
      ],
      "stateMutability": "view",
      "type": "function",
      "constant": true
    },
    {
      "inputs": [],
      "name": "emptyPoolSize",
      "outputs": [
        {
          "internalType": "uint256",
          "name": "",
          "type": "uint256"
        }
      ],
      "stateMutability": "view",
      "type": "function",
      "constant": true
    },
    {
      "inputs": [],
      "name": "endTime",
      "outputs": [
        {
          "internalType": "uint256",
          "name": "",
          "type": "uint256"
        }
      ],
      "stateMutability": "view",
      "type": "function",
      "constant": true
    },
    {
      "inputs": [
        {
          "internalType": "uint256",
          "name": "tokenId",
          "type": "uint256"
        }
      ],
      "name": "getApproved",
      "outputs": [
        {
          "internalType": "address",
          "name": "",
          "type": "address"
        }
      ],
      "stateMutability": "view",
      "type": "function",
      "constant": true
    },
    {
      "inputs": [
        {
          "internalType": "address",
          "name": "owner",
          "type": "address"
        },
        {
          "internalType": "address",
          "name": "operator",
          "type": "address"
        }
      ],
      "name": "isApprovedForAll",
      "outputs": [
        {
          "internalType": "bool",
          "name": "",
          "type": "bool"
        }
      ],
      "stateMutability": "view",
      "type": "function",
      "constant": true
    },
    {
      "inputs": [],
      "name": "name",
      "outputs": [
        {
          "internalType": "string",
          "name": "",
          "type": "string"
        }
      ],
      "stateMutability": "view",
      "type": "function",
      "constant": true
    },
    {
      "inputs": [
        {
          "internalType": "address",
          "name": "",
          "type": "address"
        },
        {
          "internalType": "address",
          "name": "",
          "type": "address"
        },
        {
          "internalType": "uint256",
          "name": "",
          "type": "uint256"
        },
        {
          "internalType": "bytes",
          "name": "",
          "type": "bytes"
        }
      ],
      "name": "onERC721Received",
      "outputs": [
        {
          "internalType": "bytes4",
          "name": "",
          "type": "bytes4"
        }
      ],
      "stateMutability": "nonpayable",
      "type": "function"
    },
    {
      "inputs": [],
      "name": "owner",
      "outputs": [
        {
          "internalType": "address",
          "name": "",
          "type": "address"
        }
      ],
      "stateMutability": "view",
      "type": "function",
      "constant": true
    },
    {
      "inputs": [
        {
          "internalType": "uint256",
          "name": "tokenId",
          "type": "uint256"
        }
      ],
      "name": "ownerOf",
      "outputs": [
        {
          "internalType": "address",
          "name": "",
          "type": "address"
        }
      ],
      "stateMutability": "view",
      "type": "function",
      "constant": true
    },
    {
      "inputs": [
        {
          "internalType": "uint256",
          "name": "",
          "type": "uint256"
        }
      ],
      "name": "prizeDetails",
      "outputs": [
        {
          "internalType": "uint256",
          "name": "id",
          "type": "uint256"
        },
        {
          "internalType": "string",
          "name": "image",
          "type": "string"
        },
        {
          "internalType": "string",
          "name": "description",
          "type": "string"
        }
      ],
      "stateMutability": "view",
      "type": "function",
      "constant": true
    },
    {
      "inputs": [
        {
          "internalType": "uint256",
          "name": "",
          "type": "uint256"
        }
      ],
      "name": "prizes",
      "outputs": [
        {
          "internalType": "uint256",
          "name": "id",
          "type": "uint256"
        },
        {
          "internalType": "string",
          "name": "image",
          "type": "string"
        },
        {
          "internalType": "string",
          "name": "description",
          "type": "string"
        }
      ],
      "stateMutability": "view",
      "type": "function",
      "constant": true
    },
    {
      "inputs": [
        {
          "internalType": "address",
          "name": "from",
          "type": "address"
        },
        {
          "internalType": "address",
          "name": "to",
          "type": "address"
        },
        {
          "internalType": "uint256",
          "name": "tokenId",
          "type": "uint256"
        }
      ],
      "name": "safeTransferFrom",
      "outputs": [],
      "stateMutability": "nonpayable",
      "type": "function"
    },
    {
      "inputs": [
        {
          "internalType": "address",
          "name": "from",
          "type": "address"
        },
        {
          "internalType": "address",
          "name": "to",
          "type": "address"
        },
        {
          "internalType": "uint256",
          "name": "tokenId",
          "type": "uint256"
        },
        {
          "internalType": "bytes",
          "name": "_data",
          "type": "bytes"
        }
      ],
      "name": "safeTransferFrom",
      "outputs": [],
      "stateMutability": "nonpayable",
      "type": "function"
    },
    {
      "inputs": [
        {
          "internalType": "address",
          "name": "operator",
          "type": "address"
        },
        {
          "internalType": "bool",
          "name": "approved",
          "type": "bool"
        }
      ],
      "name": "setApprovalForAll",
      "outputs": [],
      "stateMutability": "nonpayable",
      "type": "function"
    },
    {
      "inputs": [
        {
          "internalType": "bytes4",
          "name": "interfaceId",
          "type": "bytes4"
        }
      ],
      "name": "supportsInterface",
      "outputs": [
        {
          "internalType": "bool",
          "name": "",
          "type": "bool"
        }
      ],
      "stateMutability": "view",
      "type": "function",
      "constant": true
    },
    {
      "inputs": [],
      "name": "symbol",
      "outputs": [
        {
          "internalType": "string",
          "name": "",
          "type": "string"
        }
      ],
      "stateMutability": "view",
      "type": "function",
      "constant": true
    },
    {
      "inputs": [
        {
          "internalType": "uint256",
          "name": "tokenId",
          "type": "uint256"
        }
      ],
      "name": "tokenURI",
      "outputs": [
        {
          "internalType": "string",
          "name": "",
          "type": "string"
        }
      ],
      "stateMutability": "view",
      "type": "function",
      "constant": true
    },
    {
      "inputs": [
        {
          "internalType": "address",
          "name": "from",
          "type": "address"
        },
        {
          "internalType": "address",
          "name": "to",
          "type": "address"
        },
        {
          "internalType": "uint256",
          "name": "tokenId",
          "type": "uint256"
        }
      ],
      "name": "transferFrom",
      "outputs": [],
      "stateMutability": "nonpayable",
      "type": "function"
    },
    {
      "inputs": [
        {
          "internalType": "uint256",
          "name": "_newEmptyPoolSize",
          "type": "uint256"
        }
      ],
      "name": "updateEmptyPool",
      "outputs": [],
      "stateMutability": "nonpayable",
      "type": "function"
    },
    {
      "inputs": [
        {
          "internalType": "string",
          "name": "_image",
          "type": "string"
        },
        {
          "internalType": "string",
          "name": "_description",
          "type": "string"
        }
      ],
      "name": "addPrize",
      "outputs": [],
      "stateMutability": "nonpayable",
      "type": "function"
    },
    {
      "inputs": [],
      "name": "draw",
      "outputs": [
        {
          "internalType": "uint256",
          "name": "",
          "type": "uint256"
        },
        {
          "internalType": "uint256",
          "name": "",
          "type": "uint256"
        },
        {
          "internalType": "bool",
          "name": "",
          "type": "bool"
        }
      ],
      "stateMutability": "nonpayable",
      "type": "function"
    },
    {
      "inputs": [],
      "name": "withdrawPrize",
      "outputs": [],
      "stateMutability": "nonpayable",
      "type": "function"
    },
    {
      "inputs": [],
      "name": "getPrizesLength",
      "outputs": [
        {
          "internalType": "uint256",
          "name": "",
          "type": "uint256"
        }
      ],
      "stateMutability": "view",
      "type": "function",
      "constant": true
    },
    {
      "inputs": [
        {
          "internalType": "uint256",
          "name": "index",
          "type": "uint256"
        }
      ],
      "name": "getPrize",
      "outputs": [
        {
          "internalType": "uint256",
          "name": "",
          "type": "uint256"
        },
        {
          "internalType": "string",
          "name": "",
          "type": "string"
        },
        {
          "internalType": "string",
          "name": "",
          "type": "string"
        }
      ],
      "stateMutability": "view",
      "type": "function",
      "constant": true
    },
    {
      "inputs": [],
      "name": "getAvailablePrizesLength",
      "outputs": [
        {
          "internalType": "uint256",
          "name": "",
          "type": "uint256"
        }
      ],
      "stateMutability": "view",
      "type": "function",
      "constant": true
    },
    {
      "inputs": [
        {
          "internalType": "uint256",
          "name": "index",
          "type": "uint256"
        }
      ],
      "name": "getAvailablePrize",
      "outputs": [
        {
          "internalType": "uint256",
          "name": "",
          "type": "uint256"
        },
        {
          "internalType": "string",
          "name": "",
          "type": "string"
        },
        {
          "internalType": "string",
          "name": "",
          "type": "string"
        }
      ],
      "stateMutability": "view",
      "type": "function",
      "constant": true
    },
    {
      "inputs": [],
      "name": "getDrawLength",
      "outputs": [
        {
          "internalType": "uint256",
          "name": "",
          "type": "uint256"
        }
      ],
      "stateMutability": "view",
      "type": "function",
      "constant": true
    },
    {
      "inputs": [
        {
          "internalType": "uint256",
          "name": "index",
          "type": "uint256"
        }
      ],
      "name": "getDraw",
      "outputs": [
        {
          "internalType": "uint256",
          "name": "",
          "type": "uint256"
        },
        {
          "internalType": "address",
          "name": "",
          "type": "address"
        },
        {
          "internalType": "uint256",
          "name": "",
          "type": "uint256"
        },
        {
          "internalType": "bool",
          "name": "",
          "type": "bool"
        },
        {
          "internalType": "uint256",
          "name": "",
          "type": "uint256"
        }
      ],
      "stateMutability": "view",
      "type": "function",
      "constant": true
    },
    {
      "inputs": [
        {
          "internalType": "uint256",
          "name": "id",
          "type": "uint256"
        }
      ],
      "name": "getPrizeOwner",
      "outputs": [
        {
          "internalType": "address",
          "name": "",
          "type": "address"
        }
      ],
      "stateMutability": "view",
      "type": "function",
      "constant": true
    }
  ],
  "bytecode": "0x608060405260006007556000600a5560006010553480156200002057600080fd5b5060405162004d2d38038062004d2d83398181016040528101906200004691906200021a565b8383816000908051906020019062000060929190620000d5565b50806001908051906020019062000079929190620000d5565b50505033600660006101000a81548173ffffffffffffffffffffffffffffffffffffffff021916908373ffffffffffffffffffffffffffffffffffffffff16021790555081600881905550806009819055505050505062000472565b828054620000e39062000369565b90600052602060002090601f01602090048101928262000107576000855562000153565b82601f106200012257805160ff191683800117855562000153565b8280016001018555821562000153579182015b828111156200015257825182559160200191906001019062000135565b5b50905062000162919062000166565b5090565b5b808211156200018157600081600090555060010162000167565b5090565b60006200019c6200019684620002f3565b620002ca565b905082815260208101848484011115620001bb57620001ba62000438565b5b620001c884828562000333565b509392505050565b600082601f830112620001e857620001e762000433565b5b8151620001fa84826020860162000185565b91505092915050565b600081519050620002148162000458565b92915050565b6000806000806080858703121562000237576200023662000442565b5b600085015167ffffffffffffffff8111156200025857620002576200043d565b5b6200026687828801620001d0565b945050602085015167ffffffffffffffff8111156200028a57620002896200043d565b5b6200029887828801620001d0565b9350506040620002ab8782880162000203565b9250506060620002be8782880162000203565b91505092959194509250565b6000620002d6620002e9565b9050620002e482826200039f565b919050565b6000604051905090565b600067ffffffffffffffff82111562000311576200031062000404565b5b6200031c8262000447565b9050602081019050919050565b6000819050919050565b60005b838110156200035357808201518184015260208101905062000336565b8381111562000363576000848401525b50505050565b600060028204905060018216806200038257607f821691505b60208210811415620003995762000398620003d5565b5b50919050565b620003aa8262000447565b810181811067ffffffffffffffff82111715620003cc57620003cb62000404565b5b80604052505050565b7f4e487b7100000000000000000000000000000000000000000000000000000000600052602260045260246000fd5b7f4e487b7100000000000000000000000000000000000000000000000000000000600052604160045260246000fd5b600080fd5b600080fd5b600080fd5b600080fd5b6000601f19601f8301169050919050565b620004638162000329565b81146200046f57600080fd5b50565b6148ab80620004826000396000f3fe608060405234801561001057600080fd5b50600436106101f05760003560e01c80638da5cb5b1161010f578063be6307c8116100a2578063e985e9c511610071578063e985e9c5146105f1578063eaebd0f514610621578063eccb3a4f14610653578063f0eab14814610685576101f0565b8063be6307c81461053f578063c87b56dd14610573578063d70e63cf146105a3578063d7eab2dc146105d5576101f0565b8063a1099bf2116100de578063a1099bf2146104a3578063a22cb465146104d5578063b88d4fde146104f1578063bde106681461050d576101f0565b80638da5cb5b1461041557806395d89b411461043357806395e169fc14610451578063986ae30114610485576101f0565b806323b872dd1161018757806348d37a581161015657806348d37a581461038d578063575fa984146103975780636352211e146103b557806370a08231146103e5576101f0565b806323b872dd146103195780632d31f055146103355780633197cbb61461035357806342842e0e14610371576101f0565b80630ce4e548116101c35780630ce4e5481461028f5780630eecae21146102ab578063150b7a02146102cb57806321f7b796146102fb576101f0565b806301ffc9a7146101f557806306fdde0314610225578063081812fc14610243578063095ea7b314610273575b600080fd5b61020f600480360381019061020a9190613473565b6106b5565b60405161021c9190613a2b565b60405180910390f35b61022d610797565b60405161023a9190613a61565b60405180910390f35b61025d60048036038101906102589190613545565b610829565b60405161026a919061399b565b60405180910390f35b61028d60048036038101906102889190613433565b6108ae565b005b6102a960048036038101906102a49190613545565b6109c6565b005b6102b3610a60565b6040516102c293929190613d96565b60405180910390f35b6102e560048036038101906102e09190613370565b610e9e565b6040516102f29190613a46565b60405180910390f35b610303610eb2565b6040516103109190613ce3565b60405180910390f35b610333600480360381019061032e919061331d565b610ebf565b005b61033d610f1f565b60405161034a9190613ce3565b60405180910390f35b61035b610f2c565b6040516103689190613ce3565b60405180910390f35b61038b6004803603810190610386919061331d565b610f32565b005b610395610f52565b005b61039f611087565b6040516103ac9190613ce3565b60405180910390f35b6103cf60048036038101906103ca9190613545565b61108d565b6040516103dc919061399b565b60405180910390f35b6103ff60048036038101906103fa91906132b0565b61113f565b60405161040c9190613ce3565b60405180910390f35b61041d6111f7565b60405161042a919061399b565b60405180910390f35b61043b61121d565b6040516104489190613a61565b60405180910390f35b61046b60048036038101906104669190613545565b6112af565b60405161047c959493929190613cfe565b60405180910390f35b61048d611322565b60405161049a9190613ce3565b60405180910390f35b6104bd60048036038101906104b89190613545565b61132f565b6040516104cc93929190613d51565b60405180910390f35b6104ef60048036038101906104ea91906133f3565b611508565b005b61050b60048036038101906105069190613370565b61151e565b005b61052760048036038101906105229190613545565b611580565b60405161053693929190613d51565b60405180910390f35b61055960048036038101906105549190613545565b6116ca565b60405161056a959493929190613cfe565b60405180910390f35b61058d60048036038101906105889190613545565b611816565b60405161059a9190613a61565b60405180910390f35b6105bd60048036038101906105b89190613545565b6118bd565b6040516105cc93929190613d51565b60405180910390f35b6105ef60048036038101906105ea91906134cd565b611a07565b005b61060b600480360381019061060691906132dd565b611c24565b6040516106189190613a2b565b60405180910390f35b61063b60048036038101906106369190613545565b611cb8565b60405161064a93929190613d51565b60405180910390f35b61066d60048036038101906106689190613545565b611e91565b60405161067c93929190613d51565b60405180910390f35b61069f600480360381019061069a9190613545565b611fcb565b6040516106ac919061399b565b60405180910390f35b60007f80ac58cd000000000000000000000000000000000000000000000000000000007bffffffffffffffffffffffffffffffffffffffffffffffffffffffff1916827bffffffffffffffffffffffffffffffffffffffffffffffffffffffff1916148061078057507f5b5e139f000000000000000000000000000000000000000000000000000000007bffffffffffffffffffffffffffffffffffffffffffffffffffffffff1916827bffffffffffffffffffffffffffffffffffffffffffffffffffffffff1916145b80610790575061078f82612008565b5b9050919050565b6060600080546107a6906140ef565b80601f01602080910402602001604051908101604052809291908181526020018280546107d2906140ef565b801561081f5780601f106107f45761010080835404028352916020019161081f565b820191906000526020600020905b81548152906001019060200180831161080257829003601f168201915b5050505050905090565b600061083482612072565b610873576040517f08c379a000000000000000000000000000000000000000000000000000000000815260040161086a90613c43565b60405180910390fd5b6004600083815260200190815260200160002060009054906101000a900473ffffffffffffffffffffffffffffffffffffffff169050919050565b60006108b98261108d565b90508073ffffffffffffffffffffffffffffffffffffffff168373ffffffffffffffffffffffffffffffffffffffff16141561092a576040517f08c379a000000000000000000000000000000000000000000000000000000000815260040161092190613c83565b60405180910390fd5b8073ffffffffffffffffffffffffffffffffffffffff166109496120de565b73ffffffffffffffffffffffffffffffffffffffff1614806109785750610977816109726120de565b611c24565b5b6109b7576040517f08c379a00000000000000000000000000000000000000000000000000000000081526004016109ae90613ba3565b60405180910390fd5b6109c183836120e6565b505050565b600660009054906101000a900473ffffffffffffffffffffffffffffffffffffffff1673ffffffffffffffffffffffffffffffffffffffff163373ffffffffffffffffffffffffffffffffffffffff1614610a56576040517f08c379a0000000000000000000000000000000000000000000000000000000008152600401610a4d90613c23565b60405180910390fd5b8060098190555050565b6000806000600854421115610aaa576040517f08c379a0000000000000000000000000000000000000000000000000000000008152600401610aa190613cc3565b60405180910390fd5b6000600d8054905011610af2576040517f08c379a0000000000000000000000000000000000000000000000000000000008152600401610ae990613a83565b60405180910390fd5b6000339050600060105490506000610b0861219f565b90506000610b15826121c3565b905060106000815480929190610b2a90614152565b91905055508015610d99576000600d8381548110610b4b57610b4a6142b6565b5b906000526020600020906003020160405180606001604052908160008201548152602001600182018054610b7e906140ef565b80601f0160208091040260200160405190810160405280929190818152602001828054610baa906140ef565b8015610bf75780601f10610bcc57610100808354040283529160200191610bf7565b820191906000526020600020905b815481529060010190602001808311610bda57829003601f168201915b50505050508152602001600282018054610c10906140ef565b80601f0160208091040260200160405190810160405280929190818152602001828054610c3c906140ef565b8015610c895780601f10610c5e57610100808354040283529160200191610c89565b820191906000526020600020905b815481529060010190602001808311610c6c57829003601f168201915b5050505050815250509050600f6040518060a001604052808681526020018773ffffffffffffffffffffffffffffffffffffffff1681526020018581526020018415158152602001836000015181525090806001815401808255809150506001900390600052602060002090600502016000909190919091506000820151816000015560208201518160010160006101000a81548173ffffffffffffffffffffffffffffffffffffffff021916908373ffffffffffffffffffffffffffffffffffffffff1602179055506040820151816002015560608201518160030160006101000a81548160ff021916908315150217905550608082015181600401555050610d9385846121d4565b50610e8c565b600f6040518060a001604052808581526020018673ffffffffffffffffffffffffffffffffffffffff1681526020018481526020018315158152602001600081525090806001815401808255809150506001900390600052602060002090600502016000909190919091506000820151816000015560208201518160010160006101000a81548173ffffffffffffffffffffffffffffffffffffffff021916908373ffffffffffffffffffffffffffffffffffffffff1602179055506040820151816002015560608201518160030160006101000a81548160ff0219169083151502179055506080820151816004015550505b82828296509650965050505050909192565b600063150b7a0260e01b9050949350505050565b6000600f80549050905090565b610ed0610eca6120de565b826124dd565b610f0f576040517f08c379a0000000000000000000000000000000000000000000000000000000008152600401610f0690613ca3565b60405180910390fd5b610f1a8383836125bb565b505050565b6000600c80549050905090565b60085481565b610f4d8383836040518060200160405280600081525061151e565b505050565b600660009054906101000a900473ffffffffffffffffffffffffffffffffffffffff1673ffffffffffffffffffffffffffffffffffffffff163373ffffffffffffffffffffffffffffffffffffffff1614610fe2576040517f08c379a0000000000000000000000000000000000000000000000000000000008152600401610fd990613c23565b60405180910390fd5b6008544211611026576040517f08c379a000000000000000000000000000000000000000000000000000000000815260040161101d90613b63565b60405180910390fd5b60006001600d8054905061103a9190613f1e565b90505b6000811261108457611071600660009054906101000a900473ffffffffffffffffffffffffffffffffffffffff16826121d4565b808061107c906140a6565b91505061103d565b50565b60095481565b6000806002600084815260200190815260200160002060009054906101000a900473ffffffffffffffffffffffffffffffffffffffff169050600073ffffffffffffffffffffffffffffffffffffffff168173ffffffffffffffffffffffffffffffffffffffff161415611136576040517f08c379a000000000000000000000000000000000000000000000000000000000815260040161112d90613be3565b60405180910390fd5b80915050919050565b60008073ffffffffffffffffffffffffffffffffffffffff168273ffffffffffffffffffffffffffffffffffffffff1614156111b0576040517f08c379a00000000000000000000000000000000000000000000000000000000081526004016111a790613bc3565b60405180910390fd5b600360008373ffffffffffffffffffffffffffffffffffffffff1673ffffffffffffffffffffffffffffffffffffffff168152602001908152602001600020549050919050565b600660009054906101000a900473ffffffffffffffffffffffffffffffffffffffff1681565b60606001805461122c906140ef565b80601f0160208091040260200160405190810160405280929190818152602001828054611258906140ef565b80156112a55780601f1061127a576101008083540402835291602001916112a5565b820191906000526020600020905b81548152906001019060200180831161128857829003601f168201915b5050505050905090565b600f81815481106112bf57600080fd5b90600052602060002090600502016000915090508060000154908060010160009054906101000a900473ffffffffffffffffffffffffffffffffffffffff16908060020154908060030160009054906101000a900460ff16908060040154905085565b6000600d80549050905090565b60006060806000600c8054905011801561134d5750600c8054905084105b61138c576040517f08c379a000000000000000000000000000000000000000000000000000000000815260040161138390613b43565b60405180910390fd5b6000600c85815481106113a2576113a16142b6565b5b9060005260206000209060030201604051806060016040529081600082015481526020016001820180546113d5906140ef565b80601f0160208091040260200160405190810160405280929190818152602001828054611401906140ef565b801561144e5780601f106114235761010080835404028352916020019161144e565b820191906000526020600020905b81548152906001019060200180831161143157829003601f168201915b50505050508152602001600282018054611467906140ef565b80601f0160208091040260200160405190810160405280929190818152602001828054611493906140ef565b80156114e05780601f106114b5576101008083540402835291602001916114e0565b820191906000526020600020905b8154815290600101906020018083116114c357829003601f168201915b5050505050815250509050806000015181602001518260400151935093509350509193909250565b61151a6115136120de565b8383612822565b5050565b61152f6115296120de565b836124dd565b61156e576040517f08c379a000000000000000000000000000000000000000000000000000000000815260040161156590613ca3565b60405180910390fd5b61157a8484848461298f565b50505050565b600d818154811061159057600080fd5b90600052602060002090600302016000915090508060000154908060010180546115b9906140ef565b80601f01602080910402602001604051908101604052809291908181526020018280546115e5906140ef565b80156116325780601f1061160757610100808354040283529160200191611632565b820191906000526020600020905b81548152906001019060200180831161161557829003601f168201915b505050505090806002018054611647906140ef565b80601f0160208091040260200160405190810160405280929190818152602001828054611673906140ef565b80156116c05780601f10611695576101008083540402835291602001916116c0565b820191906000526020600020905b8154815290600101906020018083116116a357829003601f168201915b5050505050905083565b600080600080600080600f805490501180156116ea5750600f8054905086105b611729576040517f08c379a000000000000000000000000000000000000000000000000000000000815260040161172090613b43565b60405180910390fd5b6000600f878154811061173f5761173e6142b6565b5b90600052602060002090600502016040518060a0016040529081600082015481526020016001820160009054906101000a900473ffffffffffffffffffffffffffffffffffffffff1673ffffffffffffffffffffffffffffffffffffffff1673ffffffffffffffffffffffffffffffffffffffff168152602001600282015481526020016003820160009054906101000a900460ff16151515158152602001600482015481525050905080600001518160200151826040015183606001518460800151955095509550955095505091939590929450565b606061182182612072565b611860576040517f08c379a000000000000000000000000000000000000000000000000000000000815260040161185790613c63565b60405180910390fd5b600061186a6129eb565b9050600081511161188a57604051806020016040528060008152506118b5565b8061189484612a02565b6040516020016118a5929190613918565b6040516020818303038152906040525b915050919050565b600c81815481106118cd57600080fd5b90600052602060002090600302016000915090508060000154908060010180546118f6906140ef565b80601f0160208091040260200160405190810160405280929190818152602001828054611922906140ef565b801561196f5780601f106119445761010080835404028352916020019161196f565b820191906000526020600020905b81548152906001019060200180831161195257829003601f168201915b505050505090806002018054611984906140ef565b80601f01602080910402602001604051908101604052809291908181526020018280546119b0906140ef565b80156119fd5780601f106119d2576101008083540402835291602001916119fd565b820191906000526020600020905b8154815290600101906020018083116119e057829003601f168201915b5050505050905083565b600660009054906101000a900473ffffffffffffffffffffffffffffffffffffffff1673ffffffffffffffffffffffffffffffffffffffff163373ffffffffffffffffffffffffffffffffffffffff1614611a97576040517f08c379a0000000000000000000000000000000000000000000000000000000008152600401611a8e90613c23565b60405180910390fd5b6000600a549050611aa83082612b63565b6000604051806060016040528083815260200185815260200184815250905080600b6000848152602001908152602001600020600082015181600001556020820151816001019080519060200190611b01929190612ff7565b506040820151816002019080519060200190611b1e929190612ff7565b50905050600c819080600181540180825580915050600190039060005260206000209060030201600090919091909150600082015181600001556020820151816001019080519060200190611b74929190612ff7565b506040820151816002019080519060200190611b91929190612ff7565b505050600d819080600181540180825580915050600190039060005260206000209060030201600090919091909150600082015181600001556020820151816001019080519060200190611be6929190612ff7565b506040820151816002019080519060200190611c03929190612ff7565b505050600a6000815480929190611c1990614152565b919050555050505050565b6000600560008473ffffffffffffffffffffffffffffffffffffffff1673ffffffffffffffffffffffffffffffffffffffff16815260200190815260200160002060008373ffffffffffffffffffffffffffffffffffffffff1673ffffffffffffffffffffffffffffffffffffffff16815260200190815260200160002060009054906101000a900460ff16905092915050565b60006060806000600d80549050118015611cd65750600d8054905084105b611d15576040517f08c379a0000000000000000000000000000000000000000000000000000000008152600401611d0c90613b43565b60405180910390fd5b6000600d8581548110611d2b57611d2a6142b6565b5b906000526020600020906003020160405180606001604052908160008201548152602001600182018054611d5e906140ef565b80601f0160208091040260200160405190810160405280929190818152602001828054611d8a906140ef565b8015611dd75780601f10611dac57610100808354040283529160200191611dd7565b820191906000526020600020905b815481529060010190602001808311611dba57829003601f168201915b50505050508152602001600282018054611df0906140ef565b80601f0160208091040260200160405190810160405280929190818152602001828054611e1c906140ef565b8015611e695780601f10611e3e57610100808354040283529160200191611e69565b820191906000526020600020905b815481529060010190602001808311611e4c57829003601f168201915b5050505050815250509050806000015181602001518260400151935093509350509193909250565b600b602052806000526040600020600091509050806000015490806001018054611eba906140ef565b80601f0160208091040260200160405190810160405280929190818152602001828054611ee6906140ef565b8015611f335780601f10611f0857610100808354040283529160200191611f33565b820191906000526020600020905b815481529060010190602001808311611f1657829003601f168201915b505050505090806002018054611f48906140ef565b80601f0160208091040260200160405190810160405280929190818152602001828054611f74906140ef565b8015611fc15780601f10611f9657610100808354040283529160200191611fc1565b820191906000526020600020905b815481529060010190602001808311611fa457829003601f168201915b5050505050905083565b6000600e600083815260200190815260200160002060009054906101000a900473ffffffffffffffffffffffffffffffffffffffff169050919050565b60007f01ffc9a7000000000000000000000000000000000000000000000000000000007bffffffffffffffffffffffffffffffffffffffffffffffffffffffff1916827bffffffffffffffffffffffffffffffffffffffffffffffffffffffff1916149050919050565b60008073ffffffffffffffffffffffffffffffffffffffff166002600084815260200190815260200160002060009054906101000a900473ffffffffffffffffffffffffffffffffffffffff1673ffffffffffffffffffffffffffffffffffffffff1614159050919050565b600033905090565b816004600083815260200190815260200160002060006101000a81548173ffffffffffffffffffffffffffffffffffffffff021916908373ffffffffffffffffffffffffffffffffffffffff160217905550808273ffffffffffffffffffffffffffffffffffffffff166121598361108d565b73ffffffffffffffffffffffffffffffffffffffff167f8c5be1e5ebec7d5bd14f71427d1e84f3dd0314c0f7b2291e5b200ac8c7c3b92560405160405180910390a45050565b60006121be6000600954600d805490506121b99190613e97565b612b81565b905090565b6000600d8054905082109050919050565b6000600d82815481106121ea576121e96142b6565b5b90600052602060002090600302016040518060600160405290816000820154815260200160018201805461221d906140ef565b80601f0160208091040260200160405190810160405280929190818152602001828054612249906140ef565b80156122965780601f1061226b57610100808354040283529160200191612296565b820191906000526020600020905b81548152906001019060200180831161227957829003601f168201915b505050505081526020016002820180546122af906140ef565b80601f01602080910402602001604051908101604052809291908181526020018280546122db906140ef565b80156123285780601f106122fd57610100808354040283529160200191612328565b820191906000526020600020905b81548152906001019060200180831161230b57829003601f168201915b505050505081525050905082600e60008360000151815260200190815260200160002060006101000a81548173ffffffffffffffffffffffffffffffffffffffff021916908373ffffffffffffffffffffffffffffffffffffffff1602179055506123978382600001516120e6565b6123a630848360000151610f32565b7f8f62664a620f38b1375d1701a9cfa2e940224675cec78b687daecc3de4b70de38382600001516040516123db929190613a02565b60405180910390a1600d6001600d805490506123f79190613fb2565b81548110612408576124076142b6565b5b9060005260206000209060030201600d838154811061242a576124296142b6565b5b9060005260206000209060030201600082015481600001556001820181600101908054612456906140ef565b61246192919061307d565b506002820181600201908054612476906140ef565b61248192919061307d565b50905050600d80548061249757612496614287565b5b60019003818190600052602060002090600302016000808201600090556001820160006124c4919061310a565b6002820160006124d4919061310a565b50509055505050565b60006124e882612072565b612527576040517f08c379a000000000000000000000000000000000000000000000000000000000815260040161251e90613b83565b60405180910390fd5b60006125328361108d565b90508073ffffffffffffffffffffffffffffffffffffffff168473ffffffffffffffffffffffffffffffffffffffff16148061257457506125738185611c24565b5b806125b257508373ffffffffffffffffffffffffffffffffffffffff1661259a84610829565b73ffffffffffffffffffffffffffffffffffffffff16145b91505092915050565b8273ffffffffffffffffffffffffffffffffffffffff166125db8261108d565b73ffffffffffffffffffffffffffffffffffffffff1614612631576040517f08c379a000000000000000000000000000000000000000000000000000000000815260040161262890613ac3565b60405180910390fd5b600073ffffffffffffffffffffffffffffffffffffffff168273ffffffffffffffffffffffffffffffffffffffff1614156126a1576040517f08c379a000000000000000000000000000000000000000000000000000000000815260040161269890613b03565b60405180910390fd5b6126ac838383612bfe565b6126b76000826120e6565b6001600360008573ffffffffffffffffffffffffffffffffffffffff1673ffffffffffffffffffffffffffffffffffffffff16815260200190815260200160002060008282546127079190613fb2565b925050819055506001600360008473ffffffffffffffffffffffffffffffffffffffff1673ffffffffffffffffffffffffffffffffffffffff168152602001908152602001600020600082825461275e9190613e97565b92505081905550816002600083815260200190815260200160002060006101000a81548173ffffffffffffffffffffffffffffffffffffffff021916908373ffffffffffffffffffffffffffffffffffffffff160217905550808273ffffffffffffffffffffffffffffffffffffffff168473ffffffffffffffffffffffffffffffffffffffff167fddf252ad1be2c89b69c2b068fc378daa952ba7f163c4a11628f55a4df523b3ef60405160405180910390a461281d838383612c03565b505050565b8173ffffffffffffffffffffffffffffffffffffffff168373ffffffffffffffffffffffffffffffffffffffff161415612891576040517f08c379a000000000000000000000000000000000000000000000000000000000815260040161288890613b23565b60405180910390fd5b80600560008573ffffffffffffffffffffffffffffffffffffffff1673ffffffffffffffffffffffffffffffffffffffff16815260200190815260200160002060008473ffffffffffffffffffffffffffffffffffffffff1673ffffffffffffffffffffffffffffffffffffffff16815260200190815260200160002060006101000a81548160ff0219169083151502179055508173ffffffffffffffffffffffffffffffffffffffff168373ffffffffffffffffffffffffffffffffffffffff167f17307eab39ab6107e8899845ad3d59bd9653f200f220920489ca2b5937696c31836040516129829190613a2b565b60405180910390a3505050565b61299a8484846125bb565b6129a684848484612c08565b6129e5576040517f08c379a00000000000000000000000000000000000000000000000000000000081526004016129dc90613aa3565b60405180910390fd5b50505050565b606060405180602001604052806000815250905090565b60606000821415612a4a576040518060400160405280600181526020017f30000000000000000000000000000000000000000000000000000000000000008152509050612b5e565b600082905060005b60008214612a7c578080612a6590614152565b915050600a82612a759190613eed565b9150612a52565b60008167ffffffffffffffff811115612a9857612a976142e5565b5b6040519080825280601f01601f191660200182016040528015612aca5781602001600182028036833780820191505090505b5090505b60008514612b5757600182612ae39190613fb2565b9150600a85612af291906141c9565b6030612afe9190613e97565b60f81b818381518110612b1457612b136142b6565b5b60200101907effffffffffffffffffffffffffffffffffffffffffffffffffffffffffffff1916908160001a905350600a85612b509190613eed565b9450612ace565b8093505050505b919050565b612b7d828260405180602001604052806000815250612d9f565b5050565b600060076000815480929190612b9690614152565b9190505550600042444333600754604051602001612bb895949392919061393c565b6040516020818303038152906040528051906020012060001c9050838385612be09190613e97565b82612beb91906141c9565b612bf59190613fb2565b91505092915050565b505050565b505050565b6000612c298473ffffffffffffffffffffffffffffffffffffffff16612dfa565b15612d92578373ffffffffffffffffffffffffffffffffffffffff1663150b7a02612c526120de565b8786866040518563ffffffff1660e01b8152600401612c7494939291906139b6565b602060405180830381600087803b158015612c8e57600080fd5b505af1925050508015612cbf57506040513d601f19601f82011682018060405250810190612cbc91906134a0565b60015b612d42573d8060008114612cef576040519150601f19603f3d011682016040523d82523d6000602084013e612cf4565b606091505b50600081511415612d3a576040517f08c379a0000000000000000000000000000000000000000000000000000000008152600401612d3190613aa3565b60405180910390fd5b805181602001fd5b63150b7a0260e01b7bffffffffffffffffffffffffffffffffffffffffffffffffffffffff1916817bffffffffffffffffffffffffffffffffffffffffffffffffffffffff191614915050612d97565b600190505b949350505050565b612da98383612e1d565b612db66000848484612c08565b612df5576040517f08c379a0000000000000000000000000000000000000000000000000000000008152600401612dec90613aa3565b60405180910390fd5b505050565b6000808273ffffffffffffffffffffffffffffffffffffffff163b119050919050565b600073ffffffffffffffffffffffffffffffffffffffff168273ffffffffffffffffffffffffffffffffffffffff161415612e8d576040517f08c379a0000000000000000000000000000000000000000000000000000000008152600401612e8490613c03565b60405180910390fd5b612e9681612072565b15612ed6576040517f08c379a0000000000000000000000000000000000000000000000000000000008152600401612ecd90613ae3565b60405180910390fd5b612ee260008383612bfe565b6001600360008473ffffffffffffffffffffffffffffffffffffffff1673ffffffffffffffffffffffffffffffffffffffff1681526020019081526020016000206000828254612f329190613e97565b92505081905550816002600083815260200190815260200160002060006101000a81548173ffffffffffffffffffffffffffffffffffffffff021916908373ffffffffffffffffffffffffffffffffffffffff160217905550808273ffffffffffffffffffffffffffffffffffffffff16600073ffffffffffffffffffffffffffffffffffffffff167fddf252ad1be2c89b69c2b068fc378daa952ba7f163c4a11628f55a4df523b3ef60405160405180910390a4612ff360008383612c03565b5050565b828054613003906140ef565b90600052602060002090601f016020900481019282613025576000855561306c565b82601f1061303e57805160ff191683800117855561306c565b8280016001018555821561306c579182015b8281111561306b578251825591602001919060010190613050565b5b509050613079919061314a565b5090565b828054613089906140ef565b90600052602060002090601f0160209004810192826130ab57600085556130f9565b82601f106130bc57805485556130f9565b828001600101855582156130f957600052602060002091601f016020900482015b828111156130f85782548255916001019190600101906130dd565b5b509050613106919061314a565b5090565b508054613116906140ef565b6000825580601f106131285750613147565b601f016020900490600052602060002090810190613146919061314a565b5b50565b5b8082111561316357600081600090555060010161314b565b5090565b600061317a61317584613df2565b613dcd565b90508281526020810184848401111561319657613195614319565b5b6131a1848285614064565b509392505050565b60006131bc6131b784613e23565b613dcd565b9050828152602081018484840111156131d8576131d7614319565b5b6131e3848285614064565b509392505050565b6000813590506131fa81614819565b92915050565b60008135905061320f81614830565b92915050565b60008135905061322481614847565b92915050565b60008151905061323981614847565b92915050565b600082601f83011261325457613253614314565b5b8135613264848260208601613167565b91505092915050565b600082601f83011261328257613281614314565b5b81356132928482602086016131a9565b91505092915050565b6000813590506132aa8161485e565b92915050565b6000602082840312156132c6576132c5614323565b5b60006132d4848285016131eb565b91505092915050565b600080604083850312156132f4576132f3614323565b5b6000613302858286016131eb565b9250506020613313858286016131eb565b9150509250929050565b60008060006060848603121561333657613335614323565b5b6000613344868287016131eb565b9350506020613355868287016131eb565b92505060406133668682870161329b565b9150509250925092565b6000806000806080858703121561338a57613389614323565b5b6000613398878288016131eb565b94505060206133a9878288016131eb565b93505060406133ba8782880161329b565b925050606085013567ffffffffffffffff8111156133db576133da61431e565b5b6133e78782880161323f565b91505092959194509250565b6000806040838503121561340a57613409614323565b5b6000613418858286016131eb565b925050602061342985828601613200565b9150509250929050565b6000806040838503121561344a57613449614323565b5b6000613458858286016131eb565b92505060206134698582860161329b565b9150509250929050565b60006020828403121561348957613488614323565b5b600061349784828501613215565b91505092915050565b6000602082840312156134b6576134b5614323565b5b60006134c48482850161322a565b91505092915050565b600080604083850312156134e4576134e3614323565b5b600083013567ffffffffffffffff8111156135025761350161431e565b5b61350e8582860161326d565b925050602083013567ffffffffffffffff81111561352f5761352e61431e565b5b61353b8582860161326d565b9150509250929050565b60006020828403121561355b5761355a614323565b5b60006135698482850161329b565b91505092915050565b61357b81613fe6565b82525050565b61359261358d82613fe6565b61419b565b82525050565b6135a181613ff8565b82525050565b6135b081614004565b82525050565b60006135c182613e54565b6135cb8185613e6a565b93506135db818560208601614073565b6135e481614328565b840191505092915050565b60006135fa82613e5f565b6136048185613e7b565b9350613614818560208601614073565b61361d81614328565b840191505092915050565b600061363382613e5f565b61363d8185613e8c565b935061364d818560208601614073565b80840191505092915050565b6000613666601883613e7b565b915061367182614346565b602082019050919050565b6000613689603283613e7b565b91506136948261436f565b604082019050919050565b60006136ac602583613e7b565b91506136b7826143be565b604082019050919050565b60006136cf601c83613e7b565b91506136da8261440d565b602082019050919050565b60006136f2602483613e7b565b91506136fd82614436565b604082019050919050565b6000613715601983613e7b565b915061372082614485565b602082019050919050565b6000613738601283613e7b565b9150613743826144ae565b602082019050919050565b600061375b601583613e7b565b9150613766826144d7565b602082019050919050565b600061377e602c83613e7b565b915061378982614500565b604082019050919050565b60006137a1603883613e7b565b91506137ac8261454f565b604082019050919050565b60006137c4602a83613e7b565b91506137cf8261459e565b604082019050919050565b60006137e7602983613e7b565b91506137f2826145ed565b604082019050919050565b600061380a602083613e7b565b91506138158261463c565b602082019050919050565b600061382d602283613e7b565b915061383882614665565b604082019050919050565b6000613850602c83613e7b565b915061385b826146b4565b604082019050919050565b6000613873602f83613e7b565b915061387e82614703565b604082019050919050565b6000613896602183613e7b565b91506138a182614752565b604082019050919050565b60006138b9603183613e7b565b91506138c4826147a1565b604082019050919050565b60006138dc600d83613e7b565b91506138e7826147f0565b602082019050919050565b6138fb8161405a565b82525050565b61391261390d8261405a565b6141bf565b82525050565b60006139248285613628565b91506139308284613628565b91508190509392505050565b60006139488288613901565b6020820191506139588287613901565b6020820191506139688286613901565b6020820191506139788285613581565b6014820191506139888284613901565b6020820191508190509695505050505050565b60006020820190506139b06000830184613572565b92915050565b60006080820190506139cb6000830187613572565b6139d86020830186613572565b6139e560408301856138f2565b81810360608301526139f781846135b6565b905095945050505050565b6000604082019050613a176000830185613572565b613a2460208301846138f2565b9392505050565b6000602082019050613a406000830184613598565b92915050565b6000602082019050613a5b60008301846135a7565b92915050565b60006020820190508181036000830152613a7b81846135ef565b905092915050565b60006020820190508181036000830152613a9c81613659565b9050919050565b60006020820190508181036000830152613abc8161367c565b9050919050565b60006020820190508181036000830152613adc8161369f565b9050919050565b60006020820190508181036000830152613afc816136c2565b9050919050565b60006020820190508181036000830152613b1c816136e5565b9050919050565b60006020820190508181036000830152613b3c81613708565b9050919050565b60006020820190508181036000830152613b5c8161372b565b9050919050565b60006020820190508181036000830152613b7c8161374e565b9050919050565b60006020820190508181036000830152613b9c81613771565b9050919050565b60006020820190508181036000830152613bbc81613794565b9050919050565b60006020820190508181036000830152613bdc816137b7565b9050919050565b60006020820190508181036000830152613bfc816137da565b9050919050565b60006020820190508181036000830152613c1c816137fd565b9050919050565b60006020820190508181036000830152613c3c81613820565b9050919050565b60006020820190508181036000830152613c5c81613843565b9050919050565b60006020820190508181036000830152613c7c81613866565b9050919050565b60006020820190508181036000830152613c9c81613889565b9050919050565b60006020820190508181036000830152613cbc816138ac565b9050919050565b60006020820190508181036000830152613cdc816138cf565b9050919050565b6000602082019050613cf860008301846138f2565b92915050565b600060a082019050613d1360008301886138f2565b613d206020830187613572565b613d2d60408301866138f2565b613d3a6060830185613598565b613d4760808301846138f2565b9695505050505050565b6000606082019050613d6660008301866138f2565b8181036020830152613d7881856135ef565b90508181036040830152613d8c81846135ef565b9050949350505050565b6000606082019050613dab60008301866138f2565b613db860208301856138f2565b613dc56040830184613598565b949350505050565b6000613dd7613de8565b9050613de38282614121565b919050565b6000604051905090565b600067ffffffffffffffff821115613e0d57613e0c6142e5565b5b613e1682614328565b9050602081019050919050565b600067ffffffffffffffff821115613e3e57613e3d6142e5565b5b613e4782614328565b9050602081019050919050565b600081519050919050565b600081519050919050565b600082825260208201905092915050565b600082825260208201905092915050565b600081905092915050565b6000613ea28261405a565b9150613ead8361405a565b9250827fffffffffffffffffffffffffffffffffffffffffffffffffffffffffffffffff03821115613ee257613ee16141fa565b5b828201905092915050565b6000613ef88261405a565b9150613f038361405a565b925082613f1357613f12614229565b5b828204905092915050565b6000613f2982614030565b9150613f3483614030565b9250827f800000000000000000000000000000000000000000000000000000000000000001821260008412151615613f6f57613f6e6141fa565b5b827f7fffffffffffffffffffffffffffffffffffffffffffffffffffffffffffffff018213600084121615613fa757613fa66141fa565b5b828203905092915050565b6000613fbd8261405a565b9150613fc88361405a565b925082821015613fdb57613fda6141fa565b5b828203905092915050565b6000613ff18261403a565b9050919050565b60008115159050919050565b60007fffffffff0000000000000000000000000000000000000000000000000000000082169050919050565b6000819050919050565b600073ffffffffffffffffffffffffffffffffffffffff82169050919050565b6000819050919050565b82818337600083830152505050565b60005b83811015614091578082015181840152602081019050614076565b838111156140a0576000848401525b50505050565b60006140b182614030565b91507f80000000000000000000000000000000000000000000000000000000000000008214156140e4576140e36141fa565b5b600182039050919050565b6000600282049050600182168061410757607f821691505b6020821081141561411b5761411a614258565b5b50919050565b61412a82614328565b810181811067ffffffffffffffff82111715614149576141486142e5565b5b80604052505050565b600061415d8261405a565b91507fffffffffffffffffffffffffffffffffffffffffffffffffffffffffffffffff8214156141905761418f6141fa565b5b600182019050919050565b60006141a6826141ad565b9050919050565b60006141b882614339565b9050919050565b6000819050919050565b60006141d48261405a565b91506141df8361405a565b9250826141ef576141ee614229565b5b828206905092915050565b7f4e487b7100000000000000000000000000000000000000000000000000000000600052601160045260246000fd5b7f4e487b7100000000000000000000000000000000000000000000000000000000600052601260045260246000fd5b7f4e487b7100000000000000000000000000000000000000000000000000000000600052602260045260246000fd5b7f4e487b7100000000000000000000000000000000000000000000000000000000600052603160045260246000fd5b7f4e487b7100000000000000000000000000000000000000000000000000000000600052603260045260246000fd5b7f4e487b7100000000000000000000000000000000000000000000000000000000600052604160045260246000fd5b600080fd5b600080fd5b600080fd5b600080fd5b6000601f19601f8301169050919050565b60008160601b9050919050565b7f546865726520617265206e6f207072697a6573206c6566740000000000000000600082015250565b7f4552433732313a207472616e7366657220746f206e6f6e20455243373231526560008201527f63656976657220696d706c656d656e7465720000000000000000000000000000602082015250565b7f4552433732313a207472616e736665722066726f6d20696e636f72726563742060008201527f6f776e6572000000000000000000000000000000000000000000000000000000602082015250565b7f4552433732313a20746f6b656e20616c7265616479206d696e74656400000000600082015250565b7f4552433732313a207472616e7366657220746f20746865207a65726f2061646460008201527f7265737300000000000000000000000000000000000000000000000000000000602082015250565b7f4552433732313a20617070726f766520746f2063616c6c657200000000000000600082015250565b7f496e646578206f7574206f6620626f756e640000000000000000000000000000600082015250565b7f43616d7061696e20686173206e6f7420656e6465640000000000000000000000600082015250565b7f4552433732313a206f70657261746f7220717565727920666f72206e6f6e657860008201527f697374656e7420746f6b656e0000000000000000000000000000000000000000602082015250565b7f4552433732313a20617070726f76652063616c6c6572206973206e6f74206f7760008201527f6e6572206e6f7220617070726f76656420666f7220616c6c0000000000000000602082015250565b7f4552433732313a2062616c616e636520717565727920666f7220746865207a6560008201527f726f206164647265737300000000000000000000000000000000000000000000602082015250565b7f4552433732313a206f776e657220717565727920666f72206e6f6e657869737460008201527f656e7420746f6b656e0000000000000000000000000000000000000000000000602082015250565b7f4552433732313a206d696e7420746f20746865207a65726f2061646472657373600082015250565b7f4f6e6c79206f776e657220697320616c6c6f77656420746f2063616c6c20746860008201527f6973000000000000000000000000000000000000000000000000000000000000602082015250565b7f4552433732313a20617070726f76656420717565727920666f72206e6f6e657860008201527f697374656e7420746f6b656e0000000000000000000000000000000000000000602082015250565b7f4552433732314d657461646174613a2055524920717565727920666f72206e6f60008201527f6e6578697374656e7420746f6b656e0000000000000000000000000000000000602082015250565b7f4552433732313a20617070726f76616c20746f2063757272656e74206f776e6560008201527f7200000000000000000000000000000000000000000000000000000000000000602082015250565b7f4552433732313a207472616e736665722063616c6c6572206973206e6f74206f60008201527f776e6572206e6f7220617070726f766564000000000000000000000000000000602082015250565b7f43616d7061696e20656e64656400000000000000000000000000000000000000600082015250565b61482281613fe6565b811461482d57600080fd5b50565b61483981613ff8565b811461484457600080fd5b50565b61485081614004565b811461485b57600080fd5b50565b6148678161405a565b811461487257600080fd5b5056fea2646970667358221220d68ff15b10d54e719199cbd01452135dd00f4128b073d2d4d53f44b86b47a0d864736f6c63430008070033",
  "immutableReferences": {},
  "source": "// SPDX-License-Identifier: MIT\r\n\r\npragma solidity ^0.8.0;\r\n\r\nimport \"@openzeppelin/contracts/token/ERC721/ERC721.sol\";\r\nimport \"@openzeppelin/contracts/token/ERC721/utils/ERC721Holder.sol\";\r\n\r\n// ERC721Holder implemented a basic onERC721Received function\r\ncontract PrizeRaffle is ERC721, ERC721Holder   {\r\n    address public owner;\r\n    uint256 private randNonce = 0;\r\n\r\n    uint256 public endTime;\r\n    \r\n    // Determine how hard to draw a prize\r\n    uint public emptyPoolSize;\r\n    uint nextPrizeId = 0;\r\n\r\n    struct Prize {\r\n        uint id;\r\n        string image;\r\n        string description;\r\n    }\r\n\r\n    mapping (uint256 => Prize) public prizes;\r\n    Prize[] public prizeDetails;\r\n    Prize[] public availablePrizes;    // Prizes left\r\n    mapping (uint256 => address) internal prizeWinners;   // Token ID to winner mapping\r\n\r\n    struct DrawDetail {\r\n        uint256 id;\r\n        address drawer;\r\n        uint drawIndex;\r\n        bool isWon;\r\n        uint prizeWon;\r\n    }\r\n\r\n    event PrizeWonTranfer (\r\n        address winner,\r\n        uint prizeId\r\n    );\r\n\r\n    DrawDetail[] public drawDetail;\r\n    uint256 nextDrawId = 0;\r\n\r\n    constructor(\r\n        string memory name,\r\n        string memory symbol,\r\n        uint256 _endTime,\r\n        uint _emptyPoolSize\r\n    ) ERC721(name, symbol) {\r\n        owner = msg.sender;\r\n        endTime = _endTime;\r\n        emptyPoolSize = _emptyPoolSize;\r\n    }\r\n\r\n    function updateEmptyPool(uint _newEmptyPoolSize) external onlyOwner {\r\n        emptyPoolSize = _newEmptyPoolSize;\r\n    }\r\n\r\n    function addPrize(string memory _image, string memory _description) external onlyOwner {\r\n        uint id = nextPrizeId;\r\n        _safeMint(address(this), id);\r\n        Prize memory newPrize = Prize(id, _image, _description);\r\n        prizes[id] = newPrize;\r\n        prizeDetails.push(newPrize);\r\n        availablePrizes.push(newPrize);\r\n        nextPrizeId++;\r\n    }\r\n\r\n    function draw() external canDraw returns (uint256, uint, bool) {\r\n        address drawer = msg.sender;\r\n        uint256 drawId = nextDrawId;\r\n        uint prizeIndex = drawPossiblePrize();\r\n        bool isWon = isPrizeAvailable(prizeIndex);\r\n        nextDrawId++;\r\n        if (isWon) {\r\n            Prize memory prizeWon = availablePrizes[prizeIndex];\r\n            drawDetail.push(DrawDetail(drawId, drawer, prizeIndex, isWon, prizeWon.id));\r\n            transferPrize(drawer, prizeIndex);\r\n        } else {\r\n            drawDetail.push(DrawDetail(drawId, drawer, prizeIndex, isWon, 0));\r\n        }\r\n        return (drawId, prizeIndex, isWon);\r\n    }\r\n\r\n    function transferPrize(address to, uint indexId) internal {\r\n        Prize memory transfer = availablePrizes[indexId];\r\n        prizeWinners[transfer.id] = to;\r\n        _approve(to, transfer.id);\r\n        safeTransferFrom(address(this), to, transfer.id);\r\n        emit PrizeWonTranfer(to, transfer.id);\r\n\r\n        // Remove from available prize pool\r\n        availablePrizes[indexId] = availablePrizes[availablePrizes.length - 1];\r\n        availablePrizes.pop();\r\n    }\r\n\r\n    function isPrizeAvailable(uint index) internal view returns (bool) {\r\n        return (index < availablePrizes.length);\r\n    }\r\n\r\n    function drawPossiblePrize() internal returns (uint) {\r\n        return rand(0, availablePrizes.length + emptyPoolSize);\r\n    }\r\n\r\n    // Based on\r\n    // https://github.com/kiraAdi/Blockchain-based-Smart-Contract-Digitized-Lottery-Scheme-/blob/main/Contracts/ChainLottery.sol\r\n    // https://github.com/blockservice/fomo3d/blob/master/sols/fomo3d.sol\r\n    function rand(uint min, uint max) internal returns (uint) {\r\n        randNonce++;\r\n        uint rawRandom = uint(keccak256(abi.encodePacked(\r\n            block.timestamp,\r\n            block.difficulty,\r\n            block.number,\r\n            msg.sender,\r\n            randNonce\r\n        )));\r\n        return (rawRandom % (min + max) - min);\r\n    }\r\n\r\n    function withdrawPrize() external onlyOwner {\r\n        require(block.timestamp > endTime, \"Campain has not ended\");\r\n        for (int i = int(availablePrizes.length) - 1; i >= 0; i--) {\r\n            transferPrize(owner, uint(i));\r\n        }\r\n    }\r\n\r\n    // Views =====================================\r\n    function getPrizesLength() external view returns (uint) {\r\n        return prizeDetails.length;\r\n    }\r\n\r\n    function getPrize(uint index) external view returns (uint, string memory, string memory) {\r\n        require(prizeDetails.length > 0 && index < prizeDetails.length, \"Index out of bound\");\r\n        Prize memory prize = prizeDetails[index];\r\n        return (prize.id, prize.image, prize.description);\r\n    }\r\n\r\n    function getAvailablePrizesLength() external view returns (uint) {\r\n        return availablePrizes.length;\r\n    }\r\n\r\n    function getAvailablePrize(uint index) external view returns (uint, string memory, string memory) {\r\n        require(availablePrizes.length > 0 && index < availablePrizes.length, \"Index out of bound\");\r\n        Prize memory prize = availablePrizes[index];\r\n        return (prize.id, prize.image, prize.description);\r\n    }\r\n\r\n    function getDrawLength() external view returns (uint) {\r\n        return drawDetail.length;\r\n    }\r\n\r\n    function getDraw(uint index) external view returns (uint, address, uint, bool, uint) {\r\n        require(drawDetail.length > 0 && index < drawDetail.length, \"Index out of bound\");\r\n        DrawDetail memory detail = drawDetail[index];\r\n        return (detail.id, detail.drawer, detail.drawIndex, detail.isWon, detail.prizeWon);\r\n    }\r\n\r\n    function getPrizeOwner(uint256 id) external view returns (address) {\r\n        return prizeWinners[id];\r\n    }\r\n\r\n    // Modifiers =================================\r\n    modifier onlyOwner() {\r\n        require(msg.sender == owner, \"Only owner is allowed to call this\");\r\n        _;\r\n    }\r\n\r\n    modifier canDraw() {\r\n        require(block.timestamp <= endTime, \"Campain ended\");\r\n        require(availablePrizes.length > 0, \"There are no prizes left\");\r\n        _;\r\n    }\r\n}\r\n",
  "sourcePath": "D:\\_Working\\new_techs\\crypto\\raffle\\source\\smartcontract\\contracts\\PrizeRaffle.sol",
  "compiler": {
    "name": "solc",
    "version": "0.8.7+commit.e28d00a7.Emscripten.clang"
  },
  "schemaVersion": "3.4.4",
  "updatedAt": "2022-06-24T04:13:09.418Z",
  "networkType": "ethereum",
  "devdoc": {
    "kind": "dev",
    "methods": {
      "approve(address,uint256)": {
        "details": "See {IERC721-approve}."
      },
      "balanceOf(address)": {
        "details": "See {IERC721-balanceOf}."
      },
      "getApproved(uint256)": {
        "details": "See {IERC721-getApproved}."
      },
      "isApprovedForAll(address,address)": {
        "details": "See {IERC721-isApprovedForAll}."
      },
      "name()": {
        "details": "See {IERC721Metadata-name}."
      },
      "onERC721Received(address,address,uint256,bytes)": {
        "details": "See {IERC721Receiver-onERC721Received}. Always returns `IERC721Receiver.onERC721Received.selector`."
      },
      "ownerOf(uint256)": {
        "details": "See {IERC721-ownerOf}."
      },
      "safeTransferFrom(address,address,uint256)": {
        "details": "See {IERC721-safeTransferFrom}."
      },
      "safeTransferFrom(address,address,uint256,bytes)": {
        "details": "See {IERC721-safeTransferFrom}."
      },
      "setApprovalForAll(address,bool)": {
        "details": "See {IERC721-setApprovalForAll}."
      },
      "supportsInterface(bytes4)": {
        "details": "See {IERC165-supportsInterface}."
      },
      "symbol()": {
        "details": "See {IERC721Metadata-symbol}."
      },
      "tokenURI(uint256)": {
        "details": "See {IERC721Metadata-tokenURI}."
      },
      "transferFrom(address,address,uint256)": {
        "details": "See {IERC721-transferFrom}."
      }
    },
    "version": 1
  },
  "userdoc": {
    "kind": "user",
    "methods": {},
    "version": 1
  }
}