{
  "contractName": "PrizeRaffle",
  "abi": [
    {
      "inputs": [
        {
          "internalType": "string",
          "name": "name",
          "type": "string"
        },
        {
          "internalType": "string",
          "name": "symbol",
          "type": "string"
        },
        {
          "internalType": "uint256",
          "name": "_endTime",
          "type": "uint256"
        },
        {
          "internalType": "uint256",
          "name": "_emptyPoolSize",
          "type": "uint256"
        }
      ],
      "stateMutability": "nonpayable",
      "type": "constructor"
    },
    {
      "anonymous": false,
      "inputs": [
        {
          "indexed": true,
          "internalType": "address",
          "name": "owner",
          "type": "address"
        },
        {
          "indexed": true,
          "internalType": "address",
          "name": "approved",
          "type": "address"
        },
        {
          "indexed": true,
          "internalType": "uint256",
          "name": "tokenId",
          "type": "uint256"
        }
      ],
      "name": "Approval",
      "type": "event"
    },
    {
      "anonymous": false,
      "inputs": [
        {
          "indexed": true,
          "internalType": "address",
          "name": "owner",
          "type": "address"
        },
        {
          "indexed": true,
          "internalType": "address",
          "name": "operator",
          "type": "address"
        },
        {
          "indexed": false,
          "internalType": "bool",
          "name": "approved",
          "type": "bool"
        }
      ],
      "name": "ApprovalForAll",
      "type": "event"
    },
    {
      "anonymous": false,
      "inputs": [
        {
          "indexed": false,
          "internalType": "address",
          "name": "winner",
          "type": "address"
        },
        {
          "indexed": false,
          "internalType": "uint256",
          "name": "prizeId",
          "type": "uint256"
        }
      ],
      "name": "PrizeWonTranfer",
      "type": "event"
    },
    {
      "anonymous": false,
      "inputs": [
        {
          "indexed": true,
          "internalType": "address",
          "name": "from",
          "type": "address"
        },
        {
          "indexed": true,
          "internalType": "address",
          "name": "to",
          "type": "address"
        },
        {
          "indexed": true,
          "internalType": "uint256",
          "name": "tokenId",
          "type": "uint256"
        }
      ],
      "name": "Transfer",
      "type": "event"
    },
    {
      "inputs": [
        {
          "internalType": "address",
          "name": "to",
          "type": "address"
        },
        {
          "internalType": "uint256",
          "name": "tokenId",
          "type": "uint256"
        }
      ],
      "name": "approve",
      "outputs": [],
      "stateMutability": "nonpayable",
      "type": "function"
    },
    {
      "inputs": [
        {
          "internalType": "uint256",
          "name": "",
          "type": "uint256"
        }
      ],
      "name": "availablePrizes",
      "outputs": [
        {
          "internalType": "uint256",
          "name": "id",
          "type": "uint256"
        },
        {
          "internalType": "string",
          "name": "image",
          "type": "string"
        },
        {
          "internalType": "string",
          "name": "description",
          "type": "string"
        }
      ],
      "stateMutability": "view",
      "type": "function",
      "constant": true
    },
    {
      "inputs": [
        {
          "internalType": "address",
          "name": "owner",
          "type": "address"
        }
      ],
      "name": "balanceOf",
      "outputs": [
        {
          "internalType": "uint256",
          "name": "",
          "type": "uint256"
        }
      ],
      "stateMutability": "view",
      "type": "function",
      "constant": true
    },
    {
      "inputs": [
        {
          "internalType": "uint256",
          "name": "",
          "type": "uint256"
        }
      ],
      "name": "drawDetail",
      "outputs": [
        {
          "internalType": "uint256",
          "name": "id",
          "type": "uint256"
        },
        {
          "internalType": "address",
          "name": "drawer",
          "type": "address"
        },
        {
          "internalType": "uint256",
          "name": "prizeIndex",
          "type": "uint256"
        },
        {
          "internalType": "bool",
          "name": "isWon",
          "type": "bool"
        }
      ],
      "stateMutability": "view",
      "type": "function",
      "constant": true
    },
    {
      "inputs": [],
      "name": "emptyPoolSize",
      "outputs": [
        {
          "internalType": "uint256",
          "name": "",
          "type": "uint256"
        }
      ],
      "stateMutability": "view",
      "type": "function",
      "constant": true
    },
    {
      "inputs": [],
      "name": "endTime",
      "outputs": [
        {
          "internalType": "uint256",
          "name": "",
          "type": "uint256"
        }
      ],
      "stateMutability": "view",
      "type": "function",
      "constant": true
    },
    {
      "inputs": [
        {
          "internalType": "uint256",
          "name": "tokenId",
          "type": "uint256"
        }
      ],
      "name": "getApproved",
      "outputs": [
        {
          "internalType": "address",
          "name": "",
          "type": "address"
        }
      ],
      "stateMutability": "view",
      "type": "function",
      "constant": true
    },
    {
      "inputs": [
        {
          "internalType": "address",
          "name": "owner",
          "type": "address"
        },
        {
          "internalType": "address",
          "name": "operator",
          "type": "address"
        }
      ],
      "name": "isApprovedForAll",
      "outputs": [
        {
          "internalType": "bool",
          "name": "",
          "type": "bool"
        }
      ],
      "stateMutability": "view",
      "type": "function",
      "constant": true
    },
    {
      "inputs": [],
      "name": "name",
      "outputs": [
        {
          "internalType": "string",
          "name": "",
          "type": "string"
        }
      ],
      "stateMutability": "view",
      "type": "function",
      "constant": true
    },
    {
      "inputs": [],
      "name": "owner",
      "outputs": [
        {
          "internalType": "address",
          "name": "",
          "type": "address"
        }
      ],
      "stateMutability": "view",
      "type": "function",
      "constant": true
    },
    {
      "inputs": [
        {
          "internalType": "uint256",
          "name": "tokenId",
          "type": "uint256"
        }
      ],
      "name": "ownerOf",
      "outputs": [
        {
          "internalType": "address",
          "name": "",
          "type": "address"
        }
      ],
      "stateMutability": "view",
      "type": "function",
      "constant": true
    },
    {
      "inputs": [
        {
          "internalType": "uint256",
          "name": "",
          "type": "uint256"
        }
      ],
      "name": "prizeDetails",
      "outputs": [
        {
          "internalType": "uint256",
          "name": "id",
          "type": "uint256"
        },
        {
          "internalType": "string",
          "name": "image",
          "type": "string"
        },
        {
          "internalType": "string",
          "name": "description",
          "type": "string"
        }
      ],
      "stateMutability": "view",
      "type": "function",
      "constant": true
    },
    {
      "inputs": [
        {
          "internalType": "uint256",
          "name": "",
          "type": "uint256"
        }
      ],
      "name": "prizes",
      "outputs": [
        {
          "internalType": "uint256",
          "name": "id",
          "type": "uint256"
        },
        {
          "internalType": "string",
          "name": "image",
          "type": "string"
        },
        {
          "internalType": "string",
          "name": "description",
          "type": "string"
        }
      ],
      "stateMutability": "view",
      "type": "function",
      "constant": true
    },
    {
      "inputs": [
        {
          "internalType": "address",
          "name": "from",
          "type": "address"
        },
        {
          "internalType": "address",
          "name": "to",
          "type": "address"
        },
        {
          "internalType": "uint256",
          "name": "tokenId",
          "type": "uint256"
        }
      ],
      "name": "safeTransferFrom",
      "outputs": [],
      "stateMutability": "nonpayable",
      "type": "function"
    },
    {
      "inputs": [
        {
          "internalType": "address",
          "name": "from",
          "type": "address"
        },
        {
          "internalType": "address",
          "name": "to",
          "type": "address"
        },
        {
          "internalType": "uint256",
          "name": "tokenId",
          "type": "uint256"
        },
        {
          "internalType": "bytes",
          "name": "_data",
          "type": "bytes"
        }
      ],
      "name": "safeTransferFrom",
      "outputs": [],
      "stateMutability": "nonpayable",
      "type": "function"
    },
    {
      "inputs": [
        {
          "internalType": "address",
          "name": "operator",
          "type": "address"
        },
        {
          "internalType": "bool",
          "name": "approved",
          "type": "bool"
        }
      ],
      "name": "setApprovalForAll",
      "outputs": [],
      "stateMutability": "nonpayable",
      "type": "function"
    },
    {
      "inputs": [
        {
          "internalType": "bytes4",
          "name": "interfaceId",
          "type": "bytes4"
        }
      ],
      "name": "supportsInterface",
      "outputs": [
        {
          "internalType": "bool",
          "name": "",
          "type": "bool"
        }
      ],
      "stateMutability": "view",
      "type": "function",
      "constant": true
    },
    {
      "inputs": [],
      "name": "symbol",
      "outputs": [
        {
          "internalType": "string",
          "name": "",
          "type": "string"
        }
      ],
      "stateMutability": "view",
      "type": "function",
      "constant": true
    },
    {
      "inputs": [
        {
          "internalType": "uint256",
          "name": "tokenId",
          "type": "uint256"
        }
      ],
      "name": "tokenURI",
      "outputs": [
        {
          "internalType": "string",
          "name": "",
          "type": "string"
        }
      ],
      "stateMutability": "view",
      "type": "function",
      "constant": true
    },
    {
      "inputs": [
        {
          "internalType": "address",
          "name": "from",
          "type": "address"
        },
        {
          "internalType": "address",
          "name": "to",
          "type": "address"
        },
        {
          "internalType": "uint256",
          "name": "tokenId",
          "type": "uint256"
        }
      ],
      "name": "transferFrom",
      "outputs": [],
      "stateMutability": "nonpayable",
      "type": "function"
    },
    {
      "inputs": [
        {
          "internalType": "uint256",
          "name": "_newEmptyPoolSize",
          "type": "uint256"
        }
      ],
      "name": "updateEmptyPool",
      "outputs": [],
      "stateMutability": "nonpayable",
      "type": "function"
    },
    {
      "inputs": [
        {
          "internalType": "string",
          "name": "_image",
          "type": "string"
        },
        {
          "internalType": "string",
          "name": "_description",
          "type": "string"
        }
      ],
      "name": "addPrize",
      "outputs": [],
      "stateMutability": "nonpayable",
      "type": "function"
    },
    {
      "inputs": [],
      "name": "draw",
      "outputs": [
        {
          "internalType": "uint256",
          "name": "",
          "type": "uint256"
        },
        {
          "internalType": "uint256",
          "name": "",
          "type": "uint256"
        },
        {
          "internalType": "bool",
          "name": "",
          "type": "bool"
        }
      ],
      "stateMutability": "nonpayable",
      "type": "function"
    },
    {
      "inputs": [],
      "name": "withdrawPrize",
      "outputs": [],
      "stateMutability": "nonpayable",
      "type": "function"
    },
    {
      "inputs": [],
      "name": "getPrizesLength",
      "outputs": [
        {
          "internalType": "uint256",
          "name": "",
          "type": "uint256"
        }
      ],
      "stateMutability": "view",
      "type": "function",
      "constant": true
    },
    {
      "inputs": [
        {
          "internalType": "uint256",
          "name": "index",
          "type": "uint256"
        }
      ],
      "name": "getPrize",
      "outputs": [
        {
          "internalType": "uint256",
          "name": "",
          "type": "uint256"
        },
        {
          "internalType": "string",
          "name": "",
          "type": "string"
        },
        {
          "internalType": "string",
          "name": "",
          "type": "string"
        }
      ],
      "stateMutability": "view",
      "type": "function",
      "constant": true
    },
    {
      "inputs": [],
      "name": "getAvailablePrizesLength",
      "outputs": [
        {
          "internalType": "uint256",
          "name": "",
          "type": "uint256"
        }
      ],
      "stateMutability": "view",
      "type": "function",
      "constant": true
    },
    {
      "inputs": [
        {
          "internalType": "uint256",
          "name": "index",
          "type": "uint256"
        }
      ],
      "name": "getAvailablePrize",
      "outputs": [
        {
          "internalType": "uint256",
          "name": "",
          "type": "uint256"
        },
        {
          "internalType": "string",
          "name": "",
          "type": "string"
        },
        {
          "internalType": "string",
          "name": "",
          "type": "string"
        }
      ],
      "stateMutability": "view",
      "type": "function",
      "constant": true
    },
    {
      "inputs": [],
      "name": "getDrawLength",
      "outputs": [
        {
          "internalType": "uint256",
          "name": "",
          "type": "uint256"
        }
      ],
      "stateMutability": "view",
      "type": "function",
      "constant": true
    },
    {
      "inputs": [
        {
          "internalType": "uint256",
          "name": "index",
          "type": "uint256"
        }
      ],
      "name": "getDraw",
      "outputs": [
        {
          "internalType": "uint256",
          "name": "",
          "type": "uint256"
        },
        {
          "internalType": "address",
          "name": "",
          "type": "address"
        },
        {
          "internalType": "uint256",
          "name": "",
          "type": "uint256"
        },
        {
          "internalType": "bool",
          "name": "",
          "type": "bool"
        }
      ],
      "stateMutability": "view",
      "type": "function",
      "constant": true
    }
  ],
  "bytecode": "0x608060405260006007556000600a556000600f553480156200002057600080fd5b50604051620049613803806200496183398181016040528101906200004691906200021a565b8383816000908051906020019062000060929190620000d5565b50806001908051906020019062000079929190620000d5565b50505033600660006101000a81548173ffffffffffffffffffffffffffffffffffffffff021916908373ffffffffffffffffffffffffffffffffffffffff16021790555081600881905550806009819055505050505062000472565b828054620000e39062000369565b90600052602060002090601f01602090048101928262000107576000855562000153565b82601f106200012257805160ff191683800117855562000153565b8280016001018555821562000153579182015b828111156200015257825182559160200191906001019062000135565b5b50905062000162919062000166565b5090565b5b808211156200018157600081600090555060010162000167565b5090565b60006200019c6200019684620002f3565b620002ca565b905082815260208101848484011115620001bb57620001ba62000438565b5b620001c884828562000333565b509392505050565b600082601f830112620001e857620001e762000433565b5b8151620001fa84826020860162000185565b91505092915050565b600081519050620002148162000458565b92915050565b6000806000806080858703121562000237576200023662000442565b5b600085015167ffffffffffffffff8111156200025857620002576200043d565b5b6200026687828801620001d0565b945050602085015167ffffffffffffffff8111156200028a57620002896200043d565b5b6200029887828801620001d0565b9350506040620002ab8782880162000203565b9250506060620002be8782880162000203565b91505092959194509250565b6000620002d6620002e9565b9050620002e482826200039f565b919050565b6000604051905090565b600067ffffffffffffffff82111562000311576200031062000404565b5b6200031c8262000447565b9050602081019050919050565b6000819050919050565b60005b838110156200035357808201518184015260208101905062000336565b8381111562000363576000848401525b50505050565b600060028204905060018216806200038257607f821691505b60208210811415620003995762000398620003d5565b5b50919050565b620003aa8262000447565b810181811067ffffffffffffffff82111715620003cc57620003cb62000404565b5b80604052505050565b7f4e487b7100000000000000000000000000000000000000000000000000000000600052602260045260246000fd5b7f4e487b7100000000000000000000000000000000000000000000000000000000600052604160045260246000fd5b600080fd5b600080fd5b600080fd5b600080fd5b6000601f19601f8301169050919050565b620004638162000329565b81146200046f57600080fd5b50565b6144df80620004826000396000f3fe608060405234801561001057600080fd5b50600436106101da5760003560e01c80638da5cb5b11610104578063bde10668116100a2578063d7eab2dc11610071578063d7eab2dc1461058d578063e985e9c5146105a9578063eaebd0f5146105d9578063eccb3a4f1461060b576101da565b8063bde10668146104c6578063be6307c8146104f8578063c87b56dd1461052b578063d70e63cf1461055b576101da565b8063986ae301116100de578063986ae3011461043e578063a1099bf21461045c578063a22cb4651461048e578063b88d4fde146104aa576101da565b80638da5cb5b146103cf57806395d89b41146103ed57806395e169fc1461040b576101da565b806323b872dd1161017c57806348d37a581161014b57806348d37a5814610347578063575fa984146103515780636352211e1461036f57806370a082311461039f576101da565b806323b872dd146102d35780632d31f055146102ef5780633197cbb61461030d57806342842e0e1461032b576101da565b8063095ea7b3116101b8578063095ea7b31461025d5780630ce4e548146102795780630eecae211461029557806321f7b796146102b5576101da565b806301ffc9a7146101df57806306fdde031461020f578063081812fc1461022d575b600080fd5b6101f960048036038101906101f49190613101565b61063d565b6040516102069190613688565b60405180910390f35b61021761071f565b60405161022491906136a3565b60405180910390f35b610247600480360381019061024291906131d3565b6107b1565b60405161025491906135f8565b60405180910390f35b610277600480360381019061027291906130c1565b610836565b005b610293600480360381019061028e91906131d3565b61094e565b005b61029d6109e8565b6040516102ac939291906139ca565b60405180910390f35b6102bd610bbb565b6040516102ca9190613925565b60405180910390f35b6102ed60048036038101906102e89190612fab565b610bc8565b005b6102f7610c28565b6040516103049190613925565b60405180910390f35b610315610c35565b6040516103229190613925565b60405180910390f35b61034560048036038101906103409190612fab565b610c3b565b005b61034f610c5b565b005b610359610d90565b6040516103669190613925565b60405180910390f35b610389600480360381019061038491906131d3565b610d96565b60405161039691906135f8565b60405180910390f35b6103b960048036038101906103b49190612f3e565b610e48565b6040516103c69190613925565b60405180910390f35b6103d7610f00565b6040516103e491906135f8565b60405180910390f35b6103f5610f26565b60405161040291906136a3565b60405180910390f35b610425600480360381019061042091906131d3565b610fb8565b6040516104359493929190613940565b60405180910390f35b610446611025565b6040516104539190613925565b60405180910390f35b610476600480360381019061047191906131d3565b611032565b60405161048593929190613985565b60405180910390f35b6104a860048036038101906104a39190613081565b61120b565b005b6104c460048036038101906104bf9190612ffe565b611221565b005b6104e060048036038101906104db91906131d3565b611283565b6040516104ef93929190613985565b60405180910390f35b610512600480360381019061050d91906131d3565b6113cd565b6040516105229493929190613940565b60405180910390f35b610545600480360381019061054091906131d3565b611505565b60405161055291906136a3565b60405180910390f35b610575600480360381019061057091906131d3565b6115ac565b60405161058493929190613985565b60405180910390f35b6105a760048036038101906105a2919061315b565b6116f6565b005b6105c360048036038101906105be9190612f6b565b611935565b6040516105d09190613688565b60405180910390f35b6105f360048036038101906105ee91906131d3565b6119c9565b60405161060293929190613985565b60405180910390f35b610625600480360381019061062091906131d3565b611ba2565b60405161063493929190613985565b60405180910390f35b60007f80ac58cd000000000000000000000000000000000000000000000000000000007bffffffffffffffffffffffffffffffffffffffffffffffffffffffff1916827bffffffffffffffffffffffffffffffffffffffffffffffffffffffff1916148061070857507f5b5e139f000000000000000000000000000000000000000000000000000000007bffffffffffffffffffffffffffffffffffffffffffffffffffffffff1916827bffffffffffffffffffffffffffffffffffffffffffffffffffffffff1916145b80610718575061071782611cdc565b5b9050919050565b60606000805461072e90613d23565b80601f016020809104026020016040519081016040528092919081815260200182805461075a90613d23565b80156107a75780601f1061077c576101008083540402835291602001916107a7565b820191906000526020600020905b81548152906001019060200180831161078a57829003601f168201915b5050505050905090565b60006107bc82611d46565b6107fb576040517f08c379a00000000000000000000000000000000000000000000000000000000081526004016107f290613885565b60405180910390fd5b6004600083815260200190815260200160002060009054906101000a900473ffffffffffffffffffffffffffffffffffffffff169050919050565b600061084182610d96565b90508073ffffffffffffffffffffffffffffffffffffffff168373ffffffffffffffffffffffffffffffffffffffff1614156108b2576040517f08c379a00000000000000000000000000000000000000000000000000000000081526004016108a9906138c5565b60405180910390fd5b8073ffffffffffffffffffffffffffffffffffffffff166108d1611db2565b73ffffffffffffffffffffffffffffffffffffffff16148061090057506108ff816108fa611db2565b611935565b5b61093f576040517f08c379a0000000000000000000000000000000000000000000000000000000008152600401610936906137e5565b60405180910390fd5b6109498383611dba565b505050565b600660009054906101000a900473ffffffffffffffffffffffffffffffffffffffff1673ffffffffffffffffffffffffffffffffffffffff163373ffffffffffffffffffffffffffffffffffffffff16146109de576040517f08c379a00000000000000000000000000000000000000000000000000000000081526004016109d590613865565b60405180910390fd5b8060098190555050565b6000806000600854421115610a32576040517f08c379a0000000000000000000000000000000000000000000000000000000008152600401610a2990613905565b60405180910390fd5b6000600d8054905011610a7a576040517f08c379a0000000000000000000000000000000000000000000000000000000008152600401610a71906136c5565b60405180910390fd5b60003390506000600f5490506000610a90611e73565b90506000610a9d82611e97565b9050600e60405180608001604052808581526020018673ffffffffffffffffffffffffffffffffffffffff16815260200184815260200183151581525090806001815401808255809150506001900390600052602060002090600402016000909190919091506000820151816000015560208201518160010160006101000a81548173ffffffffffffffffffffffffffffffffffffffff021916908373ffffffffffffffffffffffffffffffffffffffff1602179055506040820151816002015560608201518160030160006101000a81548160ff0219169083151502179055505050600f6000815480929190610b9390613d86565b91905055508015610ba957610ba88483611ea8565b5b82828296509650965050505050909192565b6000600e80549050905090565b610bd9610bd3611db2565b8261216f565b610c18576040517f08c379a0000000000000000000000000000000000000000000000000000000008152600401610c0f906138e5565b60405180910390fd5b610c2383838361224d565b505050565b6000600c80549050905090565b60085481565b610c5683838360405180602001604052806000815250611221565b505050565b600660009054906101000a900473ffffffffffffffffffffffffffffffffffffffff1673ffffffffffffffffffffffffffffffffffffffff163373ffffffffffffffffffffffffffffffffffffffff1614610ceb576040517f08c379a0000000000000000000000000000000000000000000000000000000008152600401610ce290613865565b60405180910390fd5b6008544211610d2f576040517f08c379a0000000000000000000000000000000000000000000000000000000008152600401610d26906137a5565b60405180910390fd5b60006001600d80549050610d439190613b52565b90505b60008112610d8d57610d7a600660009054906101000a900473ffffffffffffffffffffffffffffffffffffffff1682611ea8565b8080610d8590613cda565b915050610d46565b50565b60095481565b6000806002600084815260200190815260200160002060009054906101000a900473ffffffffffffffffffffffffffffffffffffffff169050600073ffffffffffffffffffffffffffffffffffffffff168173ffffffffffffffffffffffffffffffffffffffff161415610e3f576040517f08c379a0000000000000000000000000000000000000000000000000000000008152600401610e3690613825565b60405180910390fd5b80915050919050565b60008073ffffffffffffffffffffffffffffffffffffffff168273ffffffffffffffffffffffffffffffffffffffff161415610eb9576040517f08c379a0000000000000000000000000000000000000000000000000000000008152600401610eb090613805565b60405180910390fd5b600360008373ffffffffffffffffffffffffffffffffffffffff1673ffffffffffffffffffffffffffffffffffffffff168152602001908152602001600020549050919050565b600660009054906101000a900473ffffffffffffffffffffffffffffffffffffffff1681565b606060018054610f3590613d23565b80601f0160208091040260200160405190810160405280929190818152602001828054610f6190613d23565b8015610fae5780601f10610f8357610100808354040283529160200191610fae565b820191906000526020600020905b815481529060010190602001808311610f9157829003601f168201915b5050505050905090565b600e8181548110610fc857600080fd5b90600052602060002090600402016000915090508060000154908060010160009054906101000a900473ffffffffffffffffffffffffffffffffffffffff16908060020154908060030160009054906101000a900460ff16905084565b6000600d80549050905090565b60006060806000600c805490501180156110505750600c8054905084105b61108f576040517f08c379a000000000000000000000000000000000000000000000000000000000815260040161108690613785565b60405180910390fd5b6000600c85815481106110a5576110a4613eea565b5b9060005260206000209060030201604051806060016040529081600082015481526020016001820180546110d890613d23565b80601f016020809104026020016040519081016040528092919081815260200182805461110490613d23565b80156111515780601f1061112657610100808354040283529160200191611151565b820191906000526020600020905b81548152906001019060200180831161113457829003601f168201915b5050505050815260200160028201805461116a90613d23565b80601f016020809104026020016040519081016040528092919081815260200182805461119690613d23565b80156111e35780601f106111b8576101008083540402835291602001916111e3565b820191906000526020600020905b8154815290600101906020018083116111c657829003601f168201915b5050505050815250509050806000015181602001518260400151935093509350509193909250565b61121d611216611db2565b83836124b4565b5050565b61123261122c611db2565b8361216f565b611271576040517f08c379a0000000000000000000000000000000000000000000000000000000008152600401611268906138e5565b60405180910390fd5b61127d84848484612621565b50505050565b600d818154811061129357600080fd5b90600052602060002090600302016000915090508060000154908060010180546112bc90613d23565b80601f01602080910402602001604051908101604052809291908181526020018280546112e890613d23565b80156113355780601f1061130a57610100808354040283529160200191611335565b820191906000526020600020905b81548152906001019060200180831161131857829003601f168201915b50505050509080600201805461134a90613d23565b80601f016020809104026020016040519081016040528092919081815260200182805461137690613d23565b80156113c35780601f10611398576101008083540402835291602001916113c3565b820191906000526020600020905b8154815290600101906020018083116113a657829003601f168201915b5050505050905083565b6000806000806000600e805490501180156113ec5750600e8054905085105b61142b576040517f08c379a000000000000000000000000000000000000000000000000000000000815260040161142290613785565b60405180910390fd5b6000600e868154811061144157611440613eea565b5b9060005260206000209060040201604051806080016040529081600082015481526020016001820160009054906101000a900473ffffffffffffffffffffffffffffffffffffffff1673ffffffffffffffffffffffffffffffffffffffff1673ffffffffffffffffffffffffffffffffffffffff168152602001600282015481526020016003820160009054906101000a900460ff161515151581525050905080600001518160200151826040015183606001519450945094509450509193509193565b606061151082611d46565b61154f576040517f08c379a0000000000000000000000000000000000000000000000000000000008152600401611546906138a5565b60405180910390fd5b600061155961267d565b9050600081511161157957604051806020016040528060008152506115a4565b8061158384612694565b604051602001611594929190613597565b6040516020818303038152906040525b915050919050565b600c81815481106115bc57600080fd5b90600052602060002090600302016000915090508060000154908060010180546115e590613d23565b80601f016020809104026020016040519081016040528092919081815260200182805461161190613d23565b801561165e5780601f106116335761010080835404028352916020019161165e565b820191906000526020600020905b81548152906001019060200180831161164157829003601f168201915b50505050509080600201805461167390613d23565b80601f016020809104026020016040519081016040528092919081815260200182805461169f90613d23565b80156116ec5780601f106116c1576101008083540402835291602001916116ec565b820191906000526020600020905b8154815290600101906020018083116116cf57829003601f168201915b5050505050905083565b600660009054906101000a900473ffffffffffffffffffffffffffffffffffffffff1673ffffffffffffffffffffffffffffffffffffffff163373ffffffffffffffffffffffffffffffffffffffff1614611786576040517f08c379a000000000000000000000000000000000000000000000000000000000815260040161177d90613865565b60405180910390fd5b6000600a5490506117b9600660009054906101000a900473ffffffffffffffffffffffffffffffffffffffff16826127f5565b6000604051806060016040528083815260200185815260200184815250905080600b6000848152602001908152602001600020600082015181600001556020820151816001019080519060200190611812929190612c85565b50604082015181600201908051906020019061182f929190612c85565b50905050600c819080600181540180825580915050600190039060005260206000209060030201600090919091909150600082015181600001556020820151816001019080519060200190611885929190612c85565b5060408201518160020190805190602001906118a2929190612c85565b505050600d8190806001815401808255809150506001900390600052602060002090600302016000909190919091506000820151816000015560208201518160010190805190602001906118f7929190612c85565b506040820151816002019080519060200190611914929190612c85565b505050600a600081548092919061192a90613d86565b919050555050505050565b6000600560008473ffffffffffffffffffffffffffffffffffffffff1673ffffffffffffffffffffffffffffffffffffffff16815260200190815260200160002060008373ffffffffffffffffffffffffffffffffffffffff1673ffffffffffffffffffffffffffffffffffffffff16815260200190815260200160002060009054906101000a900460ff16905092915050565b60006060806000600d805490501180156119e75750600d8054905084105b611a26576040517f08c379a0000000000000000000000000000000000000000000000000000000008152600401611a1d90613785565b60405180910390fd5b6000600d8581548110611a3c57611a3b613eea565b5b906000526020600020906003020160405180606001604052908160008201548152602001600182018054611a6f90613d23565b80601f0160208091040260200160405190810160405280929190818152602001828054611a9b90613d23565b8015611ae85780601f10611abd57610100808354040283529160200191611ae8565b820191906000526020600020905b815481529060010190602001808311611acb57829003601f168201915b50505050508152602001600282018054611b0190613d23565b80601f0160208091040260200160405190810160405280929190818152602001828054611b2d90613d23565b8015611b7a5780601f10611b4f57610100808354040283529160200191611b7a565b820191906000526020600020905b815481529060010190602001808311611b5d57829003601f168201915b5050505050815250509050806000015181602001518260400151935093509350509193909250565b600b602052806000526040600020600091509050806000015490806001018054611bcb90613d23565b80601f0160208091040260200160405190810160405280929190818152602001828054611bf790613d23565b8015611c445780601f10611c1957610100808354040283529160200191611c44565b820191906000526020600020905b815481529060010190602001808311611c2757829003601f168201915b505050505090806002018054611c5990613d23565b80601f0160208091040260200160405190810160405280929190818152602001828054611c8590613d23565b8015611cd25780601f10611ca757610100808354040283529160200191611cd2565b820191906000526020600020905b815481529060010190602001808311611cb557829003601f168201915b5050505050905083565b60007f01ffc9a7000000000000000000000000000000000000000000000000000000007bffffffffffffffffffffffffffffffffffffffffffffffffffffffff1916827bffffffffffffffffffffffffffffffffffffffffffffffffffffffff1916149050919050565b60008073ffffffffffffffffffffffffffffffffffffffff166002600084815260200190815260200160002060009054906101000a900473ffffffffffffffffffffffffffffffffffffffff1673ffffffffffffffffffffffffffffffffffffffff1614159050919050565b600033905090565b816004600083815260200190815260200160002060006101000a81548173ffffffffffffffffffffffffffffffffffffffff021916908373ffffffffffffffffffffffffffffffffffffffff160217905550808273ffffffffffffffffffffffffffffffffffffffff16611e2d83610d96565b73ffffffffffffffffffffffffffffffffffffffff167f8c5be1e5ebec7d5bd14f71427d1e84f3dd0314c0f7b2291e5b200ac8c7c3b92560405160405180910390a45050565b6000611e926000600954600d80549050611e8d9190613acb565b612813565b905090565b6000600d8054905082109050919050565b6000600d8281548110611ebe57611ebd613eea565b5b906000526020600020906003020160405180606001604052908160008201548152602001600182018054611ef190613d23565b80601f0160208091040260200160405190810160405280929190818152602001828054611f1d90613d23565b8015611f6a5780601f10611f3f57610100808354040283529160200191611f6a565b820191906000526020600020905b815481529060010190602001808311611f4d57829003601f168201915b50505050508152602001600282018054611f8390613d23565b80601f0160208091040260200160405190810160405280929190818152602001828054611faf90613d23565b8015611ffc5780601f10611fd157610100808354040283529160200191611ffc565b820191906000526020600020905b815481529060010190602001808311611fdf57829003601f168201915b5050505050815250509050612038600660009054906101000a900473ffffffffffffffffffffffffffffffffffffffff16848360000151610c3b565b7f8f62664a620f38b1375d1701a9cfa2e940224675cec78b687daecc3de4b70de383826000015160405161206d92919061365f565b60405180910390a1600d6001600d805490506120899190613be6565b8154811061209a57612099613eea565b5b9060005260206000209060030201600d83815481106120bc576120bb613eea565b5b90600052602060002090600302016000820154816000015560018201816001019080546120e890613d23565b6120f3929190612d0b565b50600282018160020190805461210890613d23565b612113929190612d0b565b50905050600d80548061212957612128613ebb565b5b60019003818190600052602060002090600302016000808201600090556001820160006121569190612d98565b6002820160006121669190612d98565b50509055505050565b600061217a82611d46565b6121b9576040517f08c379a00000000000000000000000000000000000000000000000000000000081526004016121b0906137c5565b60405180910390fd5b60006121c483610d96565b90508073ffffffffffffffffffffffffffffffffffffffff168473ffffffffffffffffffffffffffffffffffffffff16148061220657506122058185611935565b5b8061224457508373ffffffffffffffffffffffffffffffffffffffff1661222c846107b1565b73ffffffffffffffffffffffffffffffffffffffff16145b91505092915050565b8273ffffffffffffffffffffffffffffffffffffffff1661226d82610d96565b73ffffffffffffffffffffffffffffffffffffffff16146122c3576040517f08c379a00000000000000000000000000000000000000000000000000000000081526004016122ba90613705565b60405180910390fd5b600073ffffffffffffffffffffffffffffffffffffffff168273ffffffffffffffffffffffffffffffffffffffff161415612333576040517f08c379a000000000000000000000000000000000000000000000000000000000815260040161232a90613745565b60405180910390fd5b61233e83838361288c565b612349600082611dba565b6001600360008573ffffffffffffffffffffffffffffffffffffffff1673ffffffffffffffffffffffffffffffffffffffff16815260200190815260200160002060008282546123999190613be6565b925050819055506001600360008473ffffffffffffffffffffffffffffffffffffffff1673ffffffffffffffffffffffffffffffffffffffff16815260200190815260200160002060008282546123f09190613acb565b92505081905550816002600083815260200190815260200160002060006101000a81548173ffffffffffffffffffffffffffffffffffffffff021916908373ffffffffffffffffffffffffffffffffffffffff160217905550808273ffffffffffffffffffffffffffffffffffffffff168473ffffffffffffffffffffffffffffffffffffffff167fddf252ad1be2c89b69c2b068fc378daa952ba7f163c4a11628f55a4df523b3ef60405160405180910390a46124af838383612891565b505050565b8173ffffffffffffffffffffffffffffffffffffffff168373ffffffffffffffffffffffffffffffffffffffff161415612523576040517f08c379a000000000000000000000000000000000000000000000000000000000815260040161251a90613765565b60405180910390fd5b80600560008573ffffffffffffffffffffffffffffffffffffffff1673ffffffffffffffffffffffffffffffffffffffff16815260200190815260200160002060008473ffffffffffffffffffffffffffffffffffffffff1673ffffffffffffffffffffffffffffffffffffffff16815260200190815260200160002060006101000a81548160ff0219169083151502179055508173ffffffffffffffffffffffffffffffffffffffff168373ffffffffffffffffffffffffffffffffffffffff167f17307eab39ab6107e8899845ad3d59bd9653f200f220920489ca2b5937696c31836040516126149190613688565b60405180910390a3505050565b61262c84848461224d565b61263884848484612896565b612677576040517f08c379a000000000000000000000000000000000000000000000000000000000815260040161266e906136e5565b60405180910390fd5b50505050565b606060405180602001604052806000815250905090565b606060008214156126dc576040518060400160405280600181526020017f300000000000000000000000000000000000000000000000000000000000000081525090506127f0565b600082905060005b6000821461270e5780806126f790613d86565b915050600a826127079190613b21565b91506126e4565b60008167ffffffffffffffff81111561272a57612729613f19565b5b6040519080825280601f01601f19166020018201604052801561275c5781602001600182028036833780820191505090505b5090505b600085146127e9576001826127759190613be6565b9150600a856127849190613dfd565b60306127909190613acb565b60f81b8183815181106127a6576127a5613eea565b5b60200101907effffffffffffffffffffffffffffffffffffffffffffffffffffffffffffff1916908160001a905350600a856127e29190613b21565b9450612760565b8093505050505b919050565b61280f828260405180602001604052806000815250612a2d565b5050565b60006007600081548092919061282890613d86565b919050555060004233600754604051602001612846939291906135bb565b6040516020818303038152906040528051906020012060001c905083838561286e9190613acb565b826128799190613dfd565b6128839190613be6565b91505092915050565b505050565b505050565b60006128b78473ffffffffffffffffffffffffffffffffffffffff16612a88565b15612a20578373ffffffffffffffffffffffffffffffffffffffff1663150b7a026128e0611db2565b8786866040518563ffffffff1660e01b81526004016129029493929190613613565b602060405180830381600087803b15801561291c57600080fd5b505af192505050801561294d57506040513d601f19601f8201168201806040525081019061294a919061312e565b60015b6129d0573d806000811461297d576040519150601f19603f3d011682016040523d82523d6000602084013e612982565b606091505b506000815114156129c8576040517f08c379a00000000000000000000000000000000000000000000000000000000081526004016129bf906136e5565b60405180910390fd5b805181602001fd5b63150b7a0260e01b7bffffffffffffffffffffffffffffffffffffffffffffffffffffffff1916817bffffffffffffffffffffffffffffffffffffffffffffffffffffffff191614915050612a25565b600190505b949350505050565b612a378383612aab565b612a446000848484612896565b612a83576040517f08c379a0000000000000000000000000000000000000000000000000000000008152600401612a7a906136e5565b60405180910390fd5b505050565b6000808273ffffffffffffffffffffffffffffffffffffffff163b119050919050565b600073ffffffffffffffffffffffffffffffffffffffff168273ffffffffffffffffffffffffffffffffffffffff161415612b1b576040517f08c379a0000000000000000000000000000000000000000000000000000000008152600401612b1290613845565b60405180910390fd5b612b2481611d46565b15612b64576040517f08c379a0000000000000000000000000000000000000000000000000000000008152600401612b5b90613725565b60405180910390fd5b612b706000838361288c565b6001600360008473ffffffffffffffffffffffffffffffffffffffff1673ffffffffffffffffffffffffffffffffffffffff1681526020019081526020016000206000828254612bc09190613acb565b92505081905550816002600083815260200190815260200160002060006101000a81548173ffffffffffffffffffffffffffffffffffffffff021916908373ffffffffffffffffffffffffffffffffffffffff160217905550808273ffffffffffffffffffffffffffffffffffffffff16600073ffffffffffffffffffffffffffffffffffffffff167fddf252ad1be2c89b69c2b068fc378daa952ba7f163c4a11628f55a4df523b3ef60405160405180910390a4612c8160008383612891565b5050565b828054612c9190613d23565b90600052602060002090601f016020900481019282612cb35760008555612cfa565b82601f10612ccc57805160ff1916838001178555612cfa565b82800160010185558215612cfa579182015b82811115612cf9578251825591602001919060010190612cde565b5b509050612d079190612dd8565b5090565b828054612d1790613d23565b90600052602060002090601f016020900481019282612d395760008555612d87565b82601f10612d4a5780548555612d87565b82800160010185558215612d8757600052602060002091601f016020900482015b82811115612d86578254825591600101919060010190612d6b565b5b509050612d949190612dd8565b5090565b508054612da490613d23565b6000825580601f10612db65750612dd5565b601f016020900490600052602060002090810190612dd49190612dd8565b5b50565b5b80821115612df1576000816000905550600101612dd9565b5090565b6000612e08612e0384613a26565b613a01565b905082815260208101848484011115612e2457612e23613f4d565b5b612e2f848285613c98565b509392505050565b6000612e4a612e4584613a57565b613a01565b905082815260208101848484011115612e6657612e65613f4d565b5b612e71848285613c98565b509392505050565b600081359050612e888161444d565b92915050565b600081359050612e9d81614464565b92915050565b600081359050612eb28161447b565b92915050565b600081519050612ec78161447b565b92915050565b600082601f830112612ee257612ee1613f48565b5b8135612ef2848260208601612df5565b91505092915050565b600082601f830112612f1057612f0f613f48565b5b8135612f20848260208601612e37565b91505092915050565b600081359050612f3881614492565b92915050565b600060208284031215612f5457612f53613f57565b5b6000612f6284828501612e79565b91505092915050565b60008060408385031215612f8257612f81613f57565b5b6000612f9085828601612e79565b9250506020612fa185828601612e79565b9150509250929050565b600080600060608486031215612fc457612fc3613f57565b5b6000612fd286828701612e79565b9350506020612fe386828701612e79565b9250506040612ff486828701612f29565b9150509250925092565b6000806000806080858703121561301857613017613f57565b5b600061302687828801612e79565b945050602061303787828801612e79565b935050604061304887828801612f29565b925050606085013567ffffffffffffffff81111561306957613068613f52565b5b61307587828801612ecd565b91505092959194509250565b6000806040838503121561309857613097613f57565b5b60006130a685828601612e79565b92505060206130b785828601612e8e565b9150509250929050565b600080604083850312156130d8576130d7613f57565b5b60006130e685828601612e79565b92505060206130f785828601612f29565b9150509250929050565b60006020828403121561311757613116613f57565b5b600061312584828501612ea3565b91505092915050565b60006020828403121561314457613143613f57565b5b600061315284828501612eb8565b91505092915050565b6000806040838503121561317257613171613f57565b5b600083013567ffffffffffffffff8111156131905761318f613f52565b5b61319c85828601612efb565b925050602083013567ffffffffffffffff8111156131bd576131bc613f52565b5b6131c985828601612efb565b9150509250929050565b6000602082840312156131e9576131e8613f57565b5b60006131f784828501612f29565b91505092915050565b61320981613c1a565b82525050565b61322061321b82613c1a565b613dcf565b82525050565b61322f81613c2c565b82525050565b600061324082613a88565b61324a8185613a9e565b935061325a818560208601613ca7565b61326381613f5c565b840191505092915050565b600061327982613a93565b6132838185613aaf565b9350613293818560208601613ca7565b61329c81613f5c565b840191505092915050565b60006132b282613a93565b6132bc8185613ac0565b93506132cc818560208601613ca7565b80840191505092915050565b60006132e5601883613aaf565b91506132f082613f7a565b602082019050919050565b6000613308603283613aaf565b915061331382613fa3565b604082019050919050565b600061332b602583613aaf565b915061333682613ff2565b604082019050919050565b600061334e601c83613aaf565b915061335982614041565b602082019050919050565b6000613371602483613aaf565b915061337c8261406a565b604082019050919050565b6000613394601983613aaf565b915061339f826140b9565b602082019050919050565b60006133b7601283613aaf565b91506133c2826140e2565b602082019050919050565b60006133da601583613aaf565b91506133e58261410b565b602082019050919050565b60006133fd602c83613aaf565b915061340882614134565b604082019050919050565b6000613420603883613aaf565b915061342b82614183565b604082019050919050565b6000613443602a83613aaf565b915061344e826141d2565b604082019050919050565b6000613466602983613aaf565b915061347182614221565b604082019050919050565b6000613489602083613aaf565b915061349482614270565b602082019050919050565b60006134ac602283613aaf565b91506134b782614299565b604082019050919050565b60006134cf602c83613aaf565b91506134da826142e8565b604082019050919050565b60006134f2602f83613aaf565b91506134fd82614337565b604082019050919050565b6000613515602183613aaf565b915061352082614386565b604082019050919050565b6000613538603183613aaf565b9150613543826143d5565b604082019050919050565b600061355b600d83613aaf565b915061356682614424565b602082019050919050565b61357a81613c8e565b82525050565b61359161358c82613c8e565b613df3565b82525050565b60006135a382856132a7565b91506135af82846132a7565b91508190509392505050565b60006135c78286613580565b6020820191506135d7828561320f565b6014820191506135e78284613580565b602082019150819050949350505050565b600060208201905061360d6000830184613200565b92915050565b60006080820190506136286000830187613200565b6136356020830186613200565b6136426040830185613571565b81810360608301526136548184613235565b905095945050505050565b60006040820190506136746000830185613200565b6136816020830184613571565b9392505050565b600060208201905061369d6000830184613226565b92915050565b600060208201905081810360008301526136bd818461326e565b905092915050565b600060208201905081810360008301526136de816132d8565b9050919050565b600060208201905081810360008301526136fe816132fb565b9050919050565b6000602082019050818103600083015261371e8161331e565b9050919050565b6000602082019050818103600083015261373e81613341565b9050919050565b6000602082019050818103600083015261375e81613364565b9050919050565b6000602082019050818103600083015261377e81613387565b9050919050565b6000602082019050818103600083015261379e816133aa565b9050919050565b600060208201905081810360008301526137be816133cd565b9050919050565b600060208201905081810360008301526137de816133f0565b9050919050565b600060208201905081810360008301526137fe81613413565b9050919050565b6000602082019050818103600083015261381e81613436565b9050919050565b6000602082019050818103600083015261383e81613459565b9050919050565b6000602082019050818103600083015261385e8161347c565b9050919050565b6000602082019050818103600083015261387e8161349f565b9050919050565b6000602082019050818103600083015261389e816134c2565b9050919050565b600060208201905081810360008301526138be816134e5565b9050919050565b600060208201905081810360008301526138de81613508565b9050919050565b600060208201905081810360008301526138fe8161352b565b9050919050565b6000602082019050818103600083015261391e8161354e565b9050919050565b600060208201905061393a6000830184613571565b92915050565b60006080820190506139556000830187613571565b6139626020830186613200565b61396f6040830185613571565b61397c6060830184613226565b95945050505050565b600060608201905061399a6000830186613571565b81810360208301526139ac818561326e565b905081810360408301526139c0818461326e565b9050949350505050565b60006060820190506139df6000830186613571565b6139ec6020830185613571565b6139f96040830184613226565b949350505050565b6000613a0b613a1c565b9050613a178282613d55565b919050565b6000604051905090565b600067ffffffffffffffff821115613a4157613a40613f19565b5b613a4a82613f5c565b9050602081019050919050565b600067ffffffffffffffff821115613a7257613a71613f19565b5b613a7b82613f5c565b9050602081019050919050565b600081519050919050565b600081519050919050565b600082825260208201905092915050565b600082825260208201905092915050565b600081905092915050565b6000613ad682613c8e565b9150613ae183613c8e565b9250827fffffffffffffffffffffffffffffffffffffffffffffffffffffffffffffffff03821115613b1657613b15613e2e565b5b828201905092915050565b6000613b2c82613c8e565b9150613b3783613c8e565b925082613b4757613b46613e5d565b5b828204905092915050565b6000613b5d82613c64565b9150613b6883613c64565b9250827f800000000000000000000000000000000000000000000000000000000000000001821260008412151615613ba357613ba2613e2e565b5b827f7fffffffffffffffffffffffffffffffffffffffffffffffffffffffffffffff018213600084121615613bdb57613bda613e2e565b5b828203905092915050565b6000613bf182613c8e565b9150613bfc83613c8e565b925082821015613c0f57613c0e613e2e565b5b828203905092915050565b6000613c2582613c6e565b9050919050565b60008115159050919050565b60007fffffffff0000000000000000000000000000000000000000000000000000000082169050919050565b6000819050919050565b600073ffffffffffffffffffffffffffffffffffffffff82169050919050565b6000819050919050565b82818337600083830152505050565b60005b83811015613cc5578082015181840152602081019050613caa565b83811115613cd4576000848401525b50505050565b6000613ce582613c64565b91507f8000000000000000000000000000000000000000000000000000000000000000821415613d1857613d17613e2e565b5b600182039050919050565b60006002820490506001821680613d3b57607f821691505b60208210811415613d4f57613d4e613e8c565b5b50919050565b613d5e82613f5c565b810181811067ffffffffffffffff82111715613d7d57613d7c613f19565b5b80604052505050565b6000613d9182613c8e565b91507fffffffffffffffffffffffffffffffffffffffffffffffffffffffffffffffff821415613dc457613dc3613e2e565b5b600182019050919050565b6000613dda82613de1565b9050919050565b6000613dec82613f6d565b9050919050565b6000819050919050565b6000613e0882613c8e565b9150613e1383613c8e565b925082613e2357613e22613e5d565b5b828206905092915050565b7f4e487b7100000000000000000000000000000000000000000000000000000000600052601160045260246000fd5b7f4e487b7100000000000000000000000000000000000000000000000000000000600052601260045260246000fd5b7f4e487b7100000000000000000000000000000000000000000000000000000000600052602260045260246000fd5b7f4e487b7100000000000000000000000000000000000000000000000000000000600052603160045260246000fd5b7f4e487b7100000000000000000000000000000000000000000000000000000000600052603260045260246000fd5b7f4e487b7100000000000000000000000000000000000000000000000000000000600052604160045260246000fd5b600080fd5b600080fd5b600080fd5b600080fd5b6000601f19601f8301169050919050565b60008160601b9050919050565b7f546865726520617265206e6f207072697a6573206c6566740000000000000000600082015250565b7f4552433732313a207472616e7366657220746f206e6f6e20455243373231526560008201527f63656976657220696d706c656d656e7465720000000000000000000000000000602082015250565b7f4552433732313a207472616e736665722066726f6d20696e636f72726563742060008201527f6f776e6572000000000000000000000000000000000000000000000000000000602082015250565b7f4552433732313a20746f6b656e20616c7265616479206d696e74656400000000600082015250565b7f4552433732313a207472616e7366657220746f20746865207a65726f2061646460008201527f7265737300000000000000000000000000000000000000000000000000000000602082015250565b7f4552433732313a20617070726f766520746f2063616c6c657200000000000000600082015250565b7f496e646578206f7574206f6620626f756e640000000000000000000000000000600082015250565b7f43616d7061696e20686173206e6f7420656e6465640000000000000000000000600082015250565b7f4552433732313a206f70657261746f7220717565727920666f72206e6f6e657860008201527f697374656e7420746f6b656e0000000000000000000000000000000000000000602082015250565b7f4552433732313a20617070726f76652063616c6c6572206973206e6f74206f7760008201527f6e6572206e6f7220617070726f76656420666f7220616c6c0000000000000000602082015250565b7f4552433732313a2062616c616e636520717565727920666f7220746865207a6560008201527f726f206164647265737300000000000000000000000000000000000000000000602082015250565b7f4552433732313a206f776e657220717565727920666f72206e6f6e657869737460008201527f656e7420746f6b656e0000000000000000000000000000000000000000000000602082015250565b7f4552433732313a206d696e7420746f20746865207a65726f2061646472657373600082015250565b7f4f6e6c79206f776e657220697320616c6c6f77656420746f2063616c6c20746860008201527f6973000000000000000000000000000000000000000000000000000000000000602082015250565b7f4552433732313a20617070726f76656420717565727920666f72206e6f6e657860008201527f697374656e7420746f6b656e0000000000000000000000000000000000000000602082015250565b7f4552433732314d657461646174613a2055524920717565727920666f72206e6f60008201527f6e6578697374656e7420746f6b656e0000000000000000000000000000000000602082015250565b7f4552433732313a20617070726f76616c20746f2063757272656e74206f776e6560008201527f7200000000000000000000000000000000000000000000000000000000000000602082015250565b7f4552433732313a207472616e736665722063616c6c6572206973206e6f74206f60008201527f776e6572206e6f7220617070726f766564000000000000000000000000000000602082015250565b7f43616d7061696e20656e64656400000000000000000000000000000000000000600082015250565b61445681613c1a565b811461446157600080fd5b50565b61446d81613c2c565b811461447857600080fd5b50565b61448481613c38565b811461448f57600080fd5b50565b61449b81613c8e565b81146144a657600080fd5b5056fea2646970667358221220a5df4fb60b5e069aea5fcf9209c9f8286bf991d6ce07b1583046a6abec286ef864736f6c63430008070033",
  "immutableReferences": {},
  "source": "// SPDX-License-Identifier: MIT\r\n\r\npragma solidity ^0.8.0;\r\n\r\nimport \"@openzeppelin/contracts/token/ERC721/ERC721.sol\";\r\n\r\ncontract PrizeRaffle is ERC721 {\r\n    address public owner;\r\n    uint256 private randNonce = 0;\r\n\r\n    uint256 public endTime;\r\n    \r\n    // Determine how hard to draw a prize\r\n    uint public emptyPoolSize;\r\n    uint nextPrizeId = 0;\r\n\r\n    struct Prize {\r\n        uint id;\r\n        string image;\r\n        string description;\r\n    }\r\n\r\n    mapping (uint256 => Prize) public prizes;\r\n    Prize[] public prizeDetails;\r\n    Prize[] public availablePrizes;    // Prizes left\r\n    \r\n    struct DrawDetail {\r\n        uint256 id;\r\n        address drawer;\r\n        uint prizeIndex;\r\n        bool isWon;\r\n    }\r\n\r\n    event PrizeWonTranfer (\r\n        address winner,\r\n        uint prizeId\r\n    );\r\n\r\n    DrawDetail[] public drawDetail;\r\n    uint256 nextDrawId = 0;\r\n\r\n    constructor(\r\n        string memory name,\r\n        string memory symbol,\r\n        uint256 _endTime,\r\n        uint _emptyPoolSize\r\n    ) ERC721(name, symbol) {\r\n        owner = msg.sender;\r\n        endTime = _endTime;\r\n        emptyPoolSize = _emptyPoolSize;\r\n    }\r\n\r\n    function updateEmptyPool(uint _newEmptyPoolSize) external onlyOwner {\r\n        emptyPoolSize = _newEmptyPoolSize;\r\n    }\r\n\r\n    function addPrize(string memory _image, string memory _description) external onlyOwner {\r\n        uint id = nextPrizeId;\r\n        _safeMint(owner, id);\r\n        Prize memory newPrize = Prize(id, _image, _description);\r\n        prizes[id] = newPrize;\r\n        prizeDetails.push(newPrize);\r\n        availablePrizes.push(newPrize);\r\n        nextPrizeId++;\r\n    }\r\n\r\n    function draw() external canDraw returns (uint256, uint, bool) {\r\n        address drawer = msg.sender;\r\n        uint256 drawId = nextDrawId;\r\n        uint prizeIndex = drawPossiblePrize();\r\n        bool isWon = isPrizeAvailable(prizeIndex);\r\n        drawDetail.push(DrawDetail(drawId, drawer, prizeIndex, isWon));\r\n        nextDrawId++;\r\n        if (isWon) {\r\n            transferPrize(drawer, prizeIndex);\r\n        }\r\n        return (drawId, prizeIndex, isWon);\r\n    }\r\n\r\n    function transferPrize(address to, uint indexId) internal {\r\n        Prize memory transfer = availablePrizes[indexId];\r\n        safeTransferFrom(owner, to, transfer.id);\r\n        emit PrizeWonTranfer(to, transfer.id);\r\n\r\n        // Remove from available prize pool\r\n        availablePrizes[indexId] = availablePrizes[availablePrizes.length - 1];\r\n        availablePrizes.pop();\r\n    }\r\n\r\n    function isPrizeAvailable(uint index) internal view returns (bool) {\r\n        return (index < availablePrizes.length);\r\n    }\r\n\r\n    function drawPossiblePrize() internal returns (uint) {\r\n        return rand(0, availablePrizes.length + emptyPoolSize);\r\n    }\r\n\r\n    // Probably not safe\r\n    function rand(uint min, uint max) internal returns (uint) {\r\n        randNonce++;\r\n        uint rawRandom = uint(keccak256(abi.encodePacked(block.timestamp, msg.sender, randNonce)));\r\n        return (rawRandom % (min + max) - min);\r\n    }\r\n\r\n    function withdrawPrize() external onlyOwner {\r\n        require(block.timestamp > endTime, \"Campain has not ended\");\r\n        for (int i = int(availablePrizes.length) - 1; i >= 0; i--) {\r\n            transferPrize(owner, uint(i));\r\n        }\r\n    }\r\n\r\n    // Views =====================================\r\n    function getPrizesLength() external view returns (uint) {\r\n        return prizeDetails.length;\r\n    }\r\n\r\n    function getPrize(uint index) external view returns (uint, string memory, string memory) {\r\n        require(prizeDetails.length > 0 && index < prizeDetails.length, \"Index out of bound\");\r\n        Prize memory prize = prizeDetails[index];\r\n        return (prize.id, prize.image, prize.description);\r\n    }\r\n\r\n    function getAvailablePrizesLength() external view returns (uint) {\r\n        return availablePrizes.length;\r\n    }\r\n\r\n    function getAvailablePrize(uint index) external view returns (uint, string memory, string memory) {\r\n        require(availablePrizes.length > 0 && index < availablePrizes.length, \"Index out of bound\");\r\n        Prize memory prize = availablePrizes[index];\r\n        return (prize.id, prize.image, prize.description);\r\n    }\r\n\r\n    function getDrawLength() external view returns (uint) {\r\n        return drawDetail.length;\r\n    }\r\n\r\n    function getDraw(uint index) external view returns (uint, address, uint, bool) {\r\n        require(drawDetail.length > 0 && index < drawDetail.length, \"Index out of bound\");\r\n        DrawDetail memory detail = drawDetail[index];\r\n        return (detail.id, detail.drawer, detail.prizeIndex, detail.isWon);\r\n    }\r\n\r\n    // Modifiers =================================\r\n    modifier onlyOwner() {\r\n        require(msg.sender == owner, \"Only owner is allowed to call this\");\r\n        _;\r\n    }\r\n\r\n    modifier canDraw() {\r\n        require(block.timestamp <= endTime, \"Campain ended\");\r\n        require(availablePrizes.length > 0, \"There are no prizes left\");\r\n        _;\r\n    }\r\n}\r\n",
  "sourcePath": "D:\\_Working\\new_techs\\crypto\\raffle\\source\\smartcontract\\contracts\\PrizeRaffle.sol",
  "compiler": {
    "name": "solc",
    "version": "0.8.7+commit.e28d00a7.Emscripten.clang"
  },
  "schemaVersion": "3.4.4",
  "updatedAt": "2022-05-24T05:22:49.272Z",
  "networkType": "ethereum",
  "devdoc": {
    "kind": "dev",
    "methods": {
      "approve(address,uint256)": {
        "details": "See {IERC721-approve}."
      },
      "balanceOf(address)": {
        "details": "See {IERC721-balanceOf}."
      },
      "getApproved(uint256)": {
        "details": "See {IERC721-getApproved}."
      },
      "isApprovedForAll(address,address)": {
        "details": "See {IERC721-isApprovedForAll}."
      },
      "name()": {
        "details": "See {IERC721Metadata-name}."
      },
      "ownerOf(uint256)": {
        "details": "See {IERC721-ownerOf}."
      },
      "safeTransferFrom(address,address,uint256)": {
        "details": "See {IERC721-safeTransferFrom}."
      },
      "safeTransferFrom(address,address,uint256,bytes)": {
        "details": "See {IERC721-safeTransferFrom}."
      },
      "setApprovalForAll(address,bool)": {
        "details": "See {IERC721-setApprovalForAll}."
      },
      "supportsInterface(bytes4)": {
        "details": "See {IERC165-supportsInterface}."
      },
      "symbol()": {
        "details": "See {IERC721Metadata-symbol}."
      },
      "tokenURI(uint256)": {
        "details": "See {IERC721Metadata-tokenURI}."
      },
      "transferFrom(address,address,uint256)": {
        "details": "See {IERC721-transferFrom}."
      }
    },
    "version": 1
  },
  "userdoc": {
    "kind": "user",
    "methods": {},
    "version": 1
  }
}